:10100000FFFFFFFFFFFFFFFFFFFFFFFFFFFFFFFFF0
:20101000484100202D730000BD970000BD970000BD970000BD970000BD970000BD9700007F
:1C103000BD970000BD970000BD970000BD970000BD970000BD970000A99D000066
:20104C002DE9FE43AF4C0F460646F80B80F03581B80880F0C7806069B90F67D2A07A0028E5
:20106C0048D1380948D30025657001262672284604F0FDFAA44809F081FBA4492A4604F12A
:20108C004C0009F010FD607901281AD1A079C0B99F4E306870B109F0F5F86169236A3268F6
:2010AC00401A000BE061C018B0EBC21F28BF256208D2206204F1C8004FF0005109F050F8D2
:2010CC0031E0667104F1380140F60900088094F8450000F0F00040F0010084F84500658798
:2010EC0094F8440000F0F00084F84400E563894E316018E0380914D2B80BC0F0FB8004F1C2
:20110C00280009F0EFFC061C08D0706830B17568F068B6F91C1082A20CCAA84727F4005799
:20112C00E8E00020A07227F00807E3E0D8B1042008F07CFCB8B109F0A5F8A0616169814216
:20114C0026BF401A401E401A000BF060F06840F6C41100F58D708142F06003D340F2EE22B1
:20116C00824200D9F1600025D6F818C06561BCF1000F0FD094F8450010F00F0F0AD1708C83
:20118C0040F60901814205D167A20CCA30466FF48071E047604904F14C002A4609F083FCC8
:2011AC00A07950B10220ADF80000684608F080FAA571BDF80800A4F8A00001206070207989
:2011CC00A846401C2071192084F8078009F0CEF9756925B156A20CCA30464146A84727F0A7
:2011EC00005787E004F13009484609F07BFC061C5AD006F026FF4FF00008B269C6F81880DA
:20120C007068B8B1F07F42F00202002300F00700401E07D0401E03D0801E06D146A002E01F
:20122C0047A000E048A090E80C007568F068B6F91C10A84709F02CFB0546B4F93600401CC6
:20124C006FF31F30E086206B1F30017801F07F010170484608F0DCFE284609F021FCF068FA
:20126C00B0F99410B4F9362091421DD1217801291AD090F8965095B9056885B1E16809688B
:20128C00B1F1FF3F10D0254909687030B5FBF1F109F04AFCF068703008F0D5FF04E080F812
:2012AC009680404604F08CFF484609F01BFC27F0020708B147F002071CE009F0E9FA014631
:2012CC0004F12C0009F00EFC0646B569084609F0E7FBA8080CD25EB1B069A843B0617068C1
:2012EC0030B12A46F068B6F91C1075680023A84727F4804727B104F1C800394608F030FF52
:20130C00BDE8FE83B80B0020C157000079940000DC1E002000100440ED2F000008B300004E
:20132C0000000000200000000000000000000002000000000000000400000000000000106B
:20134C00000000000000004000000000000000202DE9FE430646DFF8DC82DFF8DC92B278DA
:20136C000024101C00F03581801E00F00D81401E012840F2E180801E00F0A880401E7BD0D6
:20138C00401E59D0083800F04681801E40F046814546B08895F83E70ADF80000052F45D042
:2013AC0001208DF80A0005F1CC0009F09DFB95F83E0001281BD0042819D0032806D00228FF
:2013CC0004D0F28831897089B38907E0B5F84020B5F84210B5F84400B5F84630ADF80220F6
:2013EC00ADF80410ADF80600ADF8083020E0B5F84000F1888842D8BF081CADF80200318954
:20140C00B5F842008842D8BF081CADF804007189B5F844008842D8BF081CADF80600B5F8DB
:20142C004630B0898342D8BF031CDDE78DF80A40684609F0BBF9F1E0454605F1F00009F04D
:20144C0053FB7078002840F0E980F088E882308928837089688305F1CC0009F04FF8002835
:20146C0040F0DC80AB6A002B00F0D8801B68E88A298B6A8B9847D1E0B08807F079FF4546EC
:20148C002146062205F1380003F038FEEC822C836C83B079687305F1CC0009F025FB05F179
:2014AC00F00009F021FB01244FF6FF706F79A8824FB9B079082814BF04200520A870204635
:2014CC0008F0E2FDAAE00320A870A7E0707858BB311D0A68454605F13800026089888180F5
:2014EC000627AF707089A882F089E882308A2883708A6883F0784446287394F83E000128C4
:20150C0018BF02280AD11F2006F0FCF94FF47A71024604F1CC00514306F044FCF078728955
:20152C00311D06F0CFFB7BE0707831286FD14D4604202870204623E07778002F67D145461C
:20154C00698AA878032A13D02A796F7921B9012A14BF6C712C7106E0174304D005F1A800CD
:20156C0006F020FCA878072814BF0420062007E0062807D02879002808BF0324DAD0022072
:20158C00A8704DE00724D5E77078751C00283ED14246F7789078D1799FB9022816D0072883
:2015AC0014D0062802D1517901290FD103280DD002F1A80008F0A2FF40B9012008F064FDB7
:2015CC0004E08732204605F08BF928702878F0B924E07078D8B945460220102105F1480207
:2015EC0006F0D0FE0320102105F1580206F0CAFEF61C05F12C00B7883168878005F1680246
:20160C0001600120A979A87005F06AF940B108204D46287004E0B08809F0BCF8012C06D199
:20162C004546686A18B1016809B1A8788847BDE8FE83C0469C0800209E080020F8B5A0F271
:20164C00013517460E46022D40F20C818649874C874A884B2D1F0F2D04D9143D4AD0AD1EC8
:20166C001CD011E0DFE815F0BA00B500EB00DB00AE00A700FE009F00980010001000900046
:20168C0086007A006F006200282880F2EB80022E40F0E880398806F009FDF8BD012E40F0A7
:2016AC00E1800A469078012800F0DC80D1783878D07081B9002800F0D5801078012800F06F
:2016CC00A080042800F09D80062800F09A80052800F09780F8BD3878002840F0C3801078B1
:2016EC00032800F09980072800F09680052800F09380F8BD012E40F0B5803878012840F0F3
:20170C00B180254605F1F00008F0F8FE002840F0A98004F13E01002003F000FF002840F02E
:20172C00A18004F1CC0009F0DFF9F8BD022E40F0998038880A28C0F29580B0F5486F00F3B4
:20174C009180114614E0022E40F08C803888B0F5FA7F80F2878011460880F8BD022E40F06A
:20176C008180388806287DDBB0F5486F7ADC1946891CF1E7022E75D13888062872DBB0F532
:20178C00486F6FDC1946E7E7012E6BD13878062868DA1146891F0CE0012E63D13878042859
:2017AC0060DA093105E0012E5CD13878082859DA08310870F8BD012E54D13878042851DA94
:2017CC00C91DF6E7012E4DD1387804284ADC891DEFE7022E46D138881031BDE7012E41D142
:2017EC000A46D07801283DD091783878907061B9002837D01078012803D0042818BF052859
:20180C0030D1012008F040FCF8BD387850BB1078022818BF052825D108F008FEF8BD25462C
:20182C0000211F2205F18704204603F067FC39463246204602F034FF0020EE710EE02546A3
:20184C0000211F2205F16804204603F057FC39463246204602F024FF0120AE71314622467B
:20186C0005F03EF8F8BDC0469E0800209C080020E0080020DC0800202DE9F04F0128ADF1C4
:20188C00140D40F0F280DFF81492D9F8DC00012840F0E9800220C9F8DC0008F0A7FE02909F
:2018AC00012005F0FFFB20B101210646C9F8DC10D5E008F083FE03906E484FF00008C0F8AA
:2018CC000080012008F0B2F8012818BFCDF8008004D1404604F08EFE0120009066486E4C80
:2018EC00C0F800801934D4F8FF0F112008F0A0FF00280CBF46460126102008F099FF08B196
:20190C0046F002060F2008F093FF08B146F004060B2008F08DFF30B1584800685849006B27
:20192C000246088890470A2008F082FF0028404618BF01204FF0805B0BF5DC7528B12868CF
:20194C005049006B0246088890474F480127076028688069014646F0200088474B480760C3
:20196C0008F060FF00F001010191400815D2484808F094FE8246BAF1040FF8D0BAF1010F2E
:20198C0006D1DBF8D801406802464148032190474049086820F003000860404600F080F8E2
:2019AC002868D4F8FF1F806B8047019801280ED0BAF1010F06D1DBF8D801406802463448A5
:2019CC00394690473349086840F0030008602A480760286840690146304688470B2008F05D
:2019EC0027FF28B128682649C06A0246088890470A2008F01DFF28B128682249C06A024680
:201A0C0008889047204807600322C9F8DC201F4BC3F800802868406B01463046884701280D
:201A2C00F8D1042005F03EFB124807601A48D4F8FF1F01688909FCD30098012802D1384696
:201A4C0004F0D8FD08F0E2FE082005F02BFB06460398C9F8DC7006F017FD04F0CBFA029845
:201A6C0007F04CFC02E0042600E00126304605B0BDE8F08F0C40094000022243B8010010F4
:201A8C000EAD00000AAD00002820086080010443004003402422084014100940901300200F
:201AAC002DE9F84F82467A48DFF8D89135380068800880F0D88007F031FB05467848083068
:201ACC00D0F8008000244FEA2876761C5FEA98500AD2C5F13E0015F10A0F4FEAE000D8BF55
:201AEC0008208642B8BF061C634FD7F87C01C0F3046008F0CCFD83463868C0F3044008F023
:201B0C00C6FD06EB0B020090162A05DA12F10A0FB8BF6FF0090200E01522584B584F02F0F9
:201B2C001F0141F4F8511980396811F0030F18BF0124C90828BF44F00204BAF1000F18BF2F
:201B4C0044F00404494691F90730EB1A052B04DA8B79A34208BF888864D0DFF82CE10F2DC6
:201B6C00A5F10F0C25DB0CEB0513A3F1F00C4FEA2C27072F88BF07273E46062E88BF0626A7
:201B8C005EF82600042303EB86037646F3581B1A03F0FF06E00824BFC3F307200644A00851
:201BAC0024BFC3F307400644600828BF06EB136601E0002637465EF827E0E0080EF0FF036D
:201BCC0024BFCEF307200344A00824BFCEF307400344600828BF03EB1E630098B6B2ACEBB8
:201BEC0007277E43801A06F1800603EB1623D8BF0120342208F0FF0742437A43B2FBF3F0CE
:201C0C004FF6FF72824238BF101C802D80B2888005DA15F1800FB8BF6FF07F0500E07F25E2
:201C2C00CD718C71194A12681F280A604FF0000208D340F2FF11814206D24008521C81425D
:201C4C00FBD301E01F208880124F11490F38000942EAC00247EA0200C1F8FB0F0026C1F8B4
:201C6C00FF6FBDE8F88F0D4F0B4E494608203760891D0870BDE8F88F3C1100506E620840BC
:201C8C0024220840A42400209C130050082009403500094000E7A48030100940FDFDA400A2
:201CAC00AC3F00502DE9F043ADF12C0D07F00EFA7A4E06F1380008F00DFD41F288320423B1
:201CCC007749F06006F1840005F080F900241F200621746006F0EAF901258DF80050ADF828
:201CEC0002408DF804500827ADF806704FF47A70ADF808702946ADF80A406A46ADF80C006A
:201D0C0040F20530FFF79AFC40F2063002210DF10202FFF793FC4FF442701E2106F1650220
:201D2C00FFF78CFC40F20730092106F12C02FFF785FC4FF44470294601AAFFF77FFC40F236
:201D4C00113002210DF10602FFF778FC40F21230022102AAFFF772FC40F2133002210DF166
:201D6C000A02FFF76BFC4FF44570022103AAFFF765FC08F021FD0620A02106F097F9072025
:201D8C00A02106F093F93846A02106F08FF90920A02106F08BF9A8460494A1468DF814507D
:201DAC004FF481608DF8158004218DF8169004AA8DF8178006F060F94FF48060294605AA2F
:201DCC0006F05AF940F2024029460DF1150206F053F940F2034029460DF1160206F04CF93F
:201DEC0040F2064029460DF1170206F045F908F015FE08F06DFE08F031FA07F007FA04F028
:201E0C00C5FA08F067FA06F1440008F063FC0227306104258DF8188006248DF8197021496A
:201E2C008DF81B5003260DF11D008DF81A600A680979026006AA0171484641468DF81C40F5
:201E4C0003F02CFE40460DF11902014603F026FE41460DF11A02384603F020FE304641462F
:201E6C000DF11B0203F01AFE284605210DF11D0203F014FE2046414607AA03F00FFE08F0E4
:201E8C0051FA07F07FFD06F0C3FE08F09BFD08F09DFD08F0DBFA0BB0BDE8F08320050020BA
:201EAC001DA30000CCB200002DE9F0411C4615468C4208BF854282BF00230022E5E0002C01
:201ECC0008BF002D0AD100290EBF00286FF000006FF0000100F0E1F8BDE8F0815FF0000814
:201EEC005FF0000E002C08BF8D429CBF2C1C0025070C47EA01470E0CB44208BFBD429EBF30
:201F0C005FEA044444EA15445FEA0545070A47EA01670E0AB44208BFBD429EBF5FEA0424BE
:201F2C0044EA15645FEA0525470847EAC1774E08B44208BFBD4200F29380870847EA8177F4
:201F4C008E08B44208BFBD427CD8C70847EA4177CE08B44208BFBD4266D8070947EA01778E
:201F6C000E09B44208BFBD4250D8470947EAC1674E09B44208BFBD423AD8870947EA8167E3
:201F8C008E09B44208BFBD4224D8C70947EA4167CE09B44208BFBD420DD8E60146EA5566F3
:201FAC00EF01B14208BFB84201D3C01BB14158EB08085EEB0E0EA60146EA95664FEA851771
:201FCC00B14208BFB84201D3C01BB14158EB08084EEB0E0E660146EAD5666F01B14208BFFC
:201FEC00B84201D3C01BB14158EB08084EEB0E0E260146EA15762F01B14208BFB84201D3F8
:20200C00C01BB14158EB08085EEB0E0EE60046EA5576EF00B14208BFB84201D3C01BB1410A
:20202C0058EB08084EEB0E0EA60046EA9576AF00B14208BFB84201D3C01BB14158EB0808B4
:20204C004EEB0E0E660046EAD5766F00B14208BFB84201D3C01BB14158EB08085EEB0E0EC2
:20206C00A14208BFA84201D3401BA14158EB08085EEB0E0EA34208BFAA423EBF2D0A45EAFC
:20208C000465240A89D3734642461E4617460B46024631463846BDE8F08170472DE9F84393
:2020AC00814608F0ADFB002100B901216B4E30680028FCD06C4D01242D1DEF6A346009B19D
:2020CC0008F0A4FBDFF89881C7F3072008F1BC01086008F095FB002100B9214630680028E5
:2020EC00FCD02F68346009B108F090FBC7F38440C8F8C00008F084FB0146002001B92046A4
:20210C00014630680028FCD0ED69346009B108F07DFBC5F38120C8F8D000B9F5C061C8F854
:20212C00B81000F0968098F8D80068B9C8F8D410D8F8C000C8F8C800D8F8BC70C8F8C47090
:20214C00D8F8D060C8F8CC60D8F8D410D8F8BC60002954BF02206FF00100454605F1C803DD
:20216C001A6801EB41014018411000EB917002EBA0021A60D5F8C810C5F8C46000291CDD5D
:20218C001E293DDDD5F8CC0030B93429B4BF15391E21C5F8C81025E02A29BABFD5F8C800F8
:2021AC000B381E20C5F8C800D5F8C4003F28B4BF401C3F20C5F8C4001FE0D5F8CC000328A3
:2021CC0012D011F10B0FC6BFD5F8C8000B30201CC5F8C800D5F8C4000028CCBF401E00201D
:2021EC00C5F8C400032009E011F1150FC6BFD5F8C8001530201CC5F8C8000020C5F8CC0057
:20220C00B5F8C400174E30214FF47F4208230090304604F093FE009404214FF4003211236F
:20222C00304604F08BFEB5F8C80004214FF4F80212230090304604F081FEB5F8CC00202160
:20224C004FF440620A230090304604F077FEBDE8F883002088F8D800BDE8F88300800C406D
:20226C009013002000A00C4000A00C402DE9F04FADF1840D00F026FE04F03CFE00260128A2
:20228C0004D107F035FE022808BF012658490868C0F38150012806D151F80C0C0127010EEE
:2022AC0007FA01F006435348007807F097F8524D2C46286038B1FF2204F1400107467F1E7B
:2022CC0001F8012BFBD14D4909684FF0000901F0FF02FE2A1BD0DFF824C101F0FF074A466A
:2022EC000123FF2F0CD0B8427FD903FA07F73E427BD101F0FF0147EA0909611881F8402005
:20230C005CF8041F521C01F0FF07FE2FE9D1092001F028FA3948002124220823606001A836
:20232C0008F0ECFA4FF0010804F1240001AA8DF81C80414606F052FB236843B3002794354B
:20234C004FF0040BBA4608FA07F0064219D119EA000F04BF07F0FF0141F4C04105D0E01928
:20236C00264990F8400051F82010254801F0ACFEF8B24FF0FF3107F083FB2368C5F800A023
:20238C0001E0C5F800B07F1C2D1D9F42DBD30AA800213022082308F075FA0025FF20102143
:2023AC000AAB1290174A009504F1080005F04EFC16A828220823294608F0A6FA04F16000F9
:2023CC0016AA1C9510491D952B4605F0CBFD0F4951F80D0C20F4F85040F4005041F80D0C5B
:2023EC004746C1F8FF7F0A4E376021B0BDE8F08FB43F0050B12400209822002058AE000011
:20240C00007FC767A99A0000E97200000D300940080009402DE9F843674C04F1240008F079
:20242C0061FB15460E46009008F032FA05F001078146B6F1FF3F0CD1A06A20B9B4F9360085
:20244C00401C06B202E0A06AB0F91C60002084F8A300304606F010FD0326002800F09B8037
:20246C00A16ADFF84081814269D0009FB8422ED03FB100990A68904209D009680029009149
:20248C00F7D1832E41D0484608F00AFB3DE004F1A40007F0CDF900980168AA0802D20A68AF
:2024AC0002600846002202600091009818B9484608F0F6FA28E0C17F41F00401C177684608
:2024CC0007F0A6FD0146404605F0F4FEEDE704F1A40007F0ADF9A8083ABF606A006800209D
:2024EC006062484608F0DCFA0099C87F40F00400C877684607F08CFD0146404605F0DAFE97
:20250C00009808B1A808EFD28326E07988B9207A012843D0244808F031F9022104F1C80066
:20252C0007F01EFE6078012838D0204808F026F934E004F1C800022107F012FE2EE0A9083A
:20254C0003D3616A009100266662C27F0121B9401143C17708F032F80446002F14BF14489D
:20256C00144807F0A5F8484608F09AFAA80801D3009820B9204605F087FF83260EE0C17F98
:20258C0041F00401C177684607F042FD0146404605F090FEECE7484608F082FA3046BDE89D
:2025AC00F883C046E80B00204D100000053D00000100020401000104B80B00202DE9FC4199
:2025CC005E4C574D574EDFF860815A4F94F8E410481E0B2861D8DFE800F07B2C430623433C
:2025EC00062343067664042907D001220A2945F8212C14BF0220032004E02021012045F804
:20260C00211C024684F8E200002045F8390C0827C5F8FF7FC5F8F37F45F8392CBDE8FC81CC
:20262C00052914BF09200620002584F8E400356070E094F8E1700120383D002FC5F81B005A
:20264C0004BF0620002102D00021F160032084F8E400032045F8010C31603068800859D254
:20266C0094F8E400012503280DD00021404660220523009104F062FC94F8E400062814BF0B
:20268C000A200720D1E702200090002160220523404604F053FC0420C7E708F05FFABDE817
:2026AC00FC812249002622480E60012505600E2000F0EEFF022006F059F884F8E45084F8FD
:2026CC00E360BDE8FC81002038600C2578601FE01948006800680146202088472C3D41F6A2
:2026EC001D560F2000214FF4C072072345F8010C4046C5F803600225009504F01FFC40462B
:20270C0000214FF4C072072304F0FEFF0120386084F8E45004F1780007F095FDBDE8FC817B
:20272C0039400C4038600C4000A00C402C500C4004800C4034600C40A0010010901300200C
:20274C002DE9F84F9A4693460E46814608F0A0F8514C0090B4F93610B4F934000AAF401A98
:20276C0040F6F8710140082980F28780B4F93400401C6FF31F30A086B4F9348006F0E8FF71
:20278C00054609F1700007F053F8AE6085F81EB0C5F804A0A5F81C80C5F80C9097E80C005F
:2027AC0041A003C8002605F110071040194087E8030004F12400EE770768002F50D1294667
:2027CC0005F078FD002851D0A9F89480E87F40F08000E87789F89660607A40B1607830B114
:2027EC000120A07266722779A671781C2071009808F056F9A06A00284BD1607860BBE0796D
:20280C00012846D008F044F80646207A00BBA86804F08CFA224B2149E2681B68086040B909
:20282C00304608F03DF904F1C800042107F098FC2FE00968D26804F1A400891AB1FBF3F1F5
:20284C0008F072F904F1A40007F0FDFC30461EE0144901200870F9E7192007F087FE18E089
:20286C0004F12400294605F025FD48B9B4F9340000F6FF706FF31F30A0866FF0010805E042
:20288C00A9F89480E87F40F08000E877009808F007F94046BDE8F88FB80B0020DC1E0020C2
:2028AC0008B30000B0240020F1EFFF9F20000000B0B5456884684F48297BADF1180D012999
:2028CC0016D0217E627E4C4B2F7E0143009143EA02010191494937F0010718BF081CA27ED0
:2028EC001043029095F88D000322FF2811D00DE0677E217E3843A37E019041F000410091FF
:20290C0043F000403E49029095F88D00014304220391FE204DF82200694605F1900001F05C
:20292C000DFFC5F89C00002808BF00205FD0287B344951F8200001282BD02068B0F1804F43
:20294C0014BF22220A22217ED5F89C0006F052FA2068B0F1804F14BF21220922617ED5F8F9
:20296C009C0006F047FA2068B0F1804F14BF24220C22A17ED5F89C0006F03CFA95F88D105B
:20298C00FF2933D02068B0F1804F14BF23220B2228E02068B0F1804F14BF21220922217EE3
:2029AC00D5F89C0006F026FA2068B0F1804F14BF22220A22617ED5F89C0006F01BFA206876
:2029CC00B0F1804F14BF24220C22A17ED5F89C0006F010FA2068B0F1804F14BF23220B226F
:2029EC0095F88D10D5F89C0006F004FA012006B0B0BDC046000480A0004000800004C0A0B2
:202A0C000020008054AC00002DE9F04305466E68AC680F46ADF1340D07F03AFF96F8D910B1
:202A2C00241D012903D108F03BF8002083E04FF0010986F8D99008F033F84FF00008C6F845
:202A4C0088803869306178697061387E3076387B307338783070786886F8A4807060786949
:202A6C004146092828BF494686F88C10207A00F079FE284603F00EFDE07D86F88D002846BF
:202A8C00FFF716FF50B9207A00F002FE07F000FF86F8D98008F004F845464BE001A84146E5
:202AAC003022082307F0EEFE06956078CDF80080224A0990217801AB06F11C0005F0C6F8E2
:202ACC0001A841462822082307F01EFF05951C49606801AA4346079006F1380005F042FA3F
:202AEC00307878B901A841462422082307F006FF8DF81C9006F16C00414601AA05F06EFF2C
:202B0C00104800E0B868B06003F0FEFAC6F8A000307B012807D1D6F89C0007F07DFED6F8A2
:202B2C009C0000B18560084A06F1C40004212B4606F01CFB28460DB0BDE8F08331440000EF
:202B4C004B680000E9A9000079A800002DE9F041424C474D8046C8F38140401E02D0401ECA
:202B6C002AD025E0284620300168880C20D24FF4804020603A48D0F802204B0AC1F303376B
:202B8C0003F0800322F08F02134347EA0302C0F80220D0F801300E1266F30303C0F8013049
:202BAC00026801F0E70722F0E70247EA020102E04FF00041204601602A4E06F10800006889
:202BCC00C0F3C0070FB94020A0624FF40070206407F064FC40F0300084F8C800C8F3815087
:202BEC0038B3401E03D0401E1ED002211DE0012006F01CFF07460420394604F071F804209E
:202C0C0006F014FF8742FAD1366826F07F4005F07DFD15480068036807214FF06022300ED2
:202C2C0098474FF4806020600321042004F058F806E00420012104F053F80C4805F066FD63
:202C4C00284600680B4947F6180700F03F0084F8CB0F094E0F803068BDE8F08140A00C409D
:202C6C000A600840A83F0050B4010010BD3786006C13005070B00C402C2009402DE9F04307
:202C8C000646880FADF1140D7FD303F06BFA434D4FF000081C35C5F800803D4845F81C0C8D
:202CAC00012002F0E4FC3B4807F068FD3C48434640F60A0200F13801438790F84440C0F82F
:202CCC003C8090F845700A8004F0F00480F8444007F0F00444F00104B76880F8454081467A
:202CEC007B803C1D00E03C1D276817B138888242F9D12160607A00F0F000607209F124006B
:202D0C0007F0F0FE80680088D21F82421DD0521C82421AD006F120000788B7B196F82C20AC
:202D2C0096F82D70C6F8248002F0F00286F82C2007F0F00242F0010286F82D20C9F83C0066
:202D4C00487B738400F0F0004873B068694606F0BFFC684607F09AFBB06802F002FE2868C6
:202D6C000028FCD0C5F80080012006F05FFE012808D0607A00F0F00040F001006072064896
:202D8C0007F0FCFCB06845F81C0C05B0BDE8F08301010E044D10000055660000001004406E
:202DAC00B80B00202DE9F04F0C464549CA7AADF12C0D84460592487B09900D7900958A7AF8
:202DCC00488B4B8A0E7B91F805A091F802800492B1F846E008904A7A088B0392CD780790B8
:202DEC000A7AC88A02920F6A0690CA79888A01928A79E146A9F54079B9F11D0F10D8DFE860
:202E0C0009F05B5553514F4D4B494643413F3C3A380F34312E2B2923201E1C0F1918171692
:202E2C00BCF1280F49DA604604F06CFD21E0099EB246D046CDF814801DE00898079007989A
:202E4C000690DDF818E005E03831086820608888A08032E070460AE0B1F8440009E0B1F864
:202E6C00420004E0B1F8400001E091F83E00034612E0208021E0059804900498039001E072
:202E8C003231E2E7039802900298009006E0019A87310DE068310BE01846EAE7009D0BE042
:202EAC002C31D2E7276008E0583100E048311022204601F0F5FB00E025700BB0BDE8F08FD2
:202ECC009C0800202DE9F041444C94F8E700ADF1280D00286FD1394F387B012500212422D5
:202EEC0084F8E7507E6884F8E6000823C4F80C6101A807F0EBFC002604F10C00069601AB81
:202F0C00ADF814602E490796324605F089FA2D4904F1300001AB324605F082FA2A4904F1F0
:202F2C00540001AB324605F07BFAB868014628468847DFF89C8025487B7B0078D8F804104D
:202F4C00C1F381571BB1032F03D184F8E150032F16D0022F14D0012F26D103201D4C0090EA
:202F6C0031464FF040521C23204603F0E7FF009531464FF400720923204603F0DFFF13E068
:202F8C00022005F00BFC032F0CBF4FF47A7142F21071114800685434B1FBF0F1204607F0F4
:202FAC00C3FD204607F04FF9D8F80000C00802D2304605F0F3FB0AB0BDE8F08150B2000009
:202FCC00D3750000614B000085500000B1240020B03F005000A00C4008B30000901300207E
:202FEC00F8B506F09DFF404E3E4F0446A00823D3B96A09B33D4600200B698A69A86204EAA2
:20300C000300104340F0020006F1080288610B6910689843106001F1100090E80C003068DD
:20302C001A1C9043306005F1300005F043F9022105F1C80007F094F8B86AA10815D200F18D
:20304C0010020CCA002122400B40002B08BF002A0BD0016985690C40F8622C434FF4804146
:20306C00846107F1C80007F07BF8B86A002837D107F12404204607F035FD051C30D0F868B3
:20308C00E968884226D1A86803F050FE17490860E0B906F1080128690A6810430860326808
:2030AC0005F1100393E80300081C1043306000233361A86846F80C0C06F1100000680028C2
:2030CC00FAD0204606F0A4FFBD62F8BD086803F077F8F8BD07F1C8004FF4805107F040F8BD
:2030EC00F8BDC046B80B00200C100440DC1E00202DE9F047ADF1180D01F034FA3A4D4FF0B7
:20310C00030908274FF6FF78002605F13E0A2C4606F07EFC20BB009601A80DF106016A4697
:20312C0005F019FDE0B9BDF80400102814D160789DF8061088420FD100980188884509D114
:20314C004088C00B08D3042005F12002014605F019F901E003F010FE009808B106F0A4FEA0
:20316C00208A41082DD320F0010063792179208253EA010225D073B9207A637A8DF80700C3
:20318C0005F132018DF808300A680DF109031A608988998001E08DF80790A07A8DF80F0072
:2031AC00E37A8DF810300DF1070007F0EDFA38B1636AA77023B11A6812B11968384688474A
:2031CC00208A810807D320F0020020825146304602F0A4F9208AC1089AD320F004002082F0
:2031EC0006F094FC94E7C0469C0800202DE9F84F00298346009106DD024600980021401ED6
:20320C0042F8041BFBD10098DFF8C880DFF8CC900028C8F800B012DD2F48009C0768002565
:20322C0037F8020B38B1D9F80000AE003158002088474BF80600641E05F10105F0D1284F67
:20324C0041460120D7F80080C880B8F1000F22DD4FF0000A00980127002817DDABF10405A2
:20326C000446002655F8040FB0F1FF3F04D0D9F800107158884728600021B0F1FF3F08BFF7
:20328C000121361D641E01EA0707EBD137B90AF1010AC245DEDB04A006F00AFD0D490020A9
:2032AC000860BDE8F88FC0467864632E72756E74696D652E537461727475703A20276D6187
:2032CC00785061737365732720657863656564656400C0467413002058B300005CB30000B6
:2032EC0054B300002DE9F04706467468B56807F0CFFAD4F88810002963D007F0D1FB296855
:20330C00486820F0020048602968486A20F003004862D4F8A070686929690843796809685B
:20332C00C1F804052968486920F00100486128684FF00108C0F82080304605F02BFFD4F832
:20334C008800D0F8049007F0A3FA04F1D8078246387850B119F0704F02D1042005F006FAE8
:20336C00022005F003FA00203870504607F098FBD4F88810087C042803D003200874D4F8F3
:20338C0088102A696869D4F8A0304746104307FA00F258680068C2622868B0F1804F14BF97
:2033AC000A480B480F68006800258204A7EB9250401E08603046A268C4F888509047BDE808
:2033CC00F08707F06DFBBDE8F087C04608050020380400202DE9F0430646ADF11C0D07F00D
:2033EC00A5FA05F07BF94FF000090546CDF8009007F042FA30F0010002D00098A84202D156
:20340C006FF0040059E070684C4658B1B0F1FF3F05D001A905F04AF930B107464CE04FF062
:20342C00FF3000E02046019006F0F2F90199012701EB000800E001936868019900F02CFBEE
:20344C0000282ED003A804F065FED8B99DF8100002A904F045FE88B9B368BDF808009DF872
:20346C001210059A984748B19DF81270B773BDF80800B081059B33614F4612E00599684671
:20348C0005F034FC0198641CB0F1FF3FD4D00028D2D006F0BDF9B8EB000302D001989842FE
:2034AC00C9D2009905F1080005F0FCFD24B1686802F0F4FB641EFAD1384607B0BDE8F083C0
:2034CC00F0B5ADF1340DFFF7FDFC304908682822082340F00200086001A8002107F014FAA6
:2034EC002B4E2C490524002301AA079406F1C80004F038FD00213022082301A807F0C2F95F
:20350C000025FF271921244AADF81C5001AB099706F14C00009504F099FB2822082301A8D1
:20352C00294607F0F1F91D4901AA2B4606F1FC00079404F017FD3022082301A8294607F08B
:20354C00A1F901241A21164AADF81C4001AB099706F16800009504F079FB12492A4606F19A
:20356C00A400134604F05CFF0F4807F007F9B47186F8A3507571F57135727572B5724FF6C9
:20358C00FF7075610DB0A6F8A000F0BD00200940B80B0020DDA0000079940000953E000089
:2035AC00A966000069920000053D00007CB50446084602F0D7F9344E02461821304605F0BA
:2035CC00EDFB06F04FFA40F2FF32002380B22C210090304603F0B2FC06F068FF1C2102462A
:2035EC00304605F0DBFB06F02FFA02461421304605F0D4FB06F0B8FC02461021304605F01A
:20360C00CDFB204602F06AF802460C21304605F0C5FB204606F090FC1C4D400040F020009B
:20362C002870204606F094FC40F010002870204606F05EF802462821304605F0AFFB204664
:20364C0006F09EFC400040F06000E870204606F0A3FCC00040F0800005F8080C204606F0CE
:20366C00A7FC800040F47C40A5F89300204605F0ABFB02460821304605F090FB4FF48000D0
:20368C00A5F2091108607CBD00A00C4049A10C402DE9F843044607F0FBF881462D480219CE
:2036AC0092F8ED10491ECFB2002F82F8ED704BD12B4D05EB84052E78698836F07F0788466B
:2036CC001AD1F10911D24FF08054D4F8B801806901464046884704F5DC742068406B014636
:2036EC00404688470228F8D121E000EB8800D0F80011002088471AE04FF08054D4F8B801A8
:20370C00006A014640468847D4F8B801806A014640468847D4F8B801006B01464046884700
:20372C0001210D4A0D48116001688908FCD306F03F003F2801D0FFF7ABFF687800F03F0059
:20374C003F2801D0FFF7A4FF484607F0A9F9BDE8F883C0469013002028200860282008403C
:20376C00E0AC00002DE9F041064607F091F82D4D8046A91991F8ED00421C002881F8ED201A
:20378C004AD1294C04EB8604277807F03F003F2801D0FFF7E7FF607800F03F003F2801D0EC
:2037AC00FFF7E0FF668837F07F001AD1F80911D24FF08054D4F8B8014069014630468847F8
:2037CC0004F5DC742068406B0146304688470128F8D121E005EB8605D5F800110120884799
:2037EC001AE04FF08054D4F8B801C069014630468847D4F8B801406A014630468847D4F8EF
:20380C00B801C06A0146304688470121074A0848116001688908FCD3404607F041F9BDE8D4
:20382C00F081C04690130020E0AC000028200860282008402DE9F84F0D460646286874680E
:20384C00D6F80880002855D007F022F8D4F8881021B107F025F9032028744BE001272F74A8
:20386C00C4F8885007F01CF994F8A40038B194F88D202249D4F89C00114304F05FFFD5F804
:20388C0004A007F005F804F1D80999F80030834653B91AF0704F02D1042004F07FFF0220C4
:2038AC0004F07CFF89F80070584607F0F9F8D8F80010486840F0020048603046294600F0D7
:2038CC00B7F9D8F80010486940F001004861207830B9616804F16C05284600F0DDF810B11D
:2038EC003846BDE8F88F3046FFF7FCFC2846002100F0D2F80020BDE8F88FC046000006808D
:20390C00FEB5FEF7CFF9304C4FF6FF75002606F071F8002833D1009601A80DF106016A4651
:20392C0005F002F930BBBDF804000127102811D120789DF8061088420CD1009801888D42CB
:20394C0005D14088000905D304F0F4F902E006F0BAFE0746009868B167B106F081FA09E0FB
:20396C00E06806F0F4F9071C04D006F0E3F9384606F052FAE06806F0ECFE0028F0D060888F
:20398C00C10806D320F00400608006F05DFF06F04BFB206906F0DDFE0028B8D1206906F06D
:2039AC0033F90746387A012806D0022808D17889F96800F03BFC03E07889F96800F022FEF0
:2039CC00384606F029FAE4E720050020294A2DE9F04180460126284816600768002FFCD03D
:2039EC00294C2A4FC020443C206007F1080001682348890804D20168090C41F0F00100E032
:203A0C0072211E4D85F85412002111638768384601F0AEFB40463946FFF7C8FD1C48B03811
:203A2C00816D40F20F226FF31F418A4212D901680068C1F30363C0F3034003B15B1E072873
:203A4C0005D006280EBF0720801C00F00F0043EA001028703846FFF779F80E481438006804
:203A6C00C1680220884740202060064F3E60BDE8F081C04610100940940222430260084023
:203A8C00AC3F00509404604244600C40A83F00506C130050B40100102DE9F0410D46064604
:203AAC00B5F1FF3FADF1380D09D045B12B496B4605A82A4605F00EFC05A9022001E0002151
:203ACC0003200391264F8DF8100038682024EFF31188371884F31188708980BB002D04BF37
:203AEC0088F31188002036D006F080FD064606F01DFF0290C0F818D004F0E0FC3846694680
:203B0C0006F0F6FE9DF810000025022802D1039801F0F8FF88F31188304605F0EFFBEFF31A
:203B2C00118384F31188039810B106F0FBFF03950298856183F311889DF810000BE07089D9
:203B4C00401E7081039818B106F0ECFF0020039088F3118801200EB0BDE8F081618F000019
:203B6C0014B300002DE9F04115460446A869A060686A98460E4608B92A4800686062286A82
:203B8C00002806BF28480768071C06F08DFEEB69A3B9002808BF391C03D03F1841427F1E6B
:203BAC0039400246E161606AE169434601F06EFE2062206AB8B90120BDE8F081002804BF5D
:203BCC002362391C0BD01B1841425B1E01EA030020623F1AE869C019E061E0690140E161F5
:203BEC004FF0FF306062A6622869E06268692063A86A6063A88DA087A08F012803D10B49A9
:203C0C00C868401CC8602046414601F077F90346404606F0C9FA002814BFD81C0020BDE85A
:203C2C00F081C04628B300002CB3000088160020F8B58C4645688468DCF8007095F88C1004
:203C4C00B8B288401FFA80FE2068B0F1804F14BF244B254BDCF80820244832B995F88C1069
:203C6C008E00815905F1A60207E095F88C108E00811951F8081C7244521E99605A6021682B
:203C8C003A0143F6F077103A0831174019609A683A439A602368B3F1804F14BF144A154AE3
:203CAC00DCF804C0BCF1000F04BF805904F10E0605D0801950F8100C0EEB0C06761E90609E
:203CCC00166051609068074397602169D5F8A06060690843716809688862586A40F00300E4
:203CEC005862F8BD00050020300400206CAC00001005002040040020042998B54DD1274C14
:203D0C0004F1240006F0EEFE40B994F8A300400838BFE06804D3D4F8880000E0C068E0607A
:203D2C0041681F4A09781160416812680978914206D0876927B120A20CCA6FF0FF01B84768
:203D4C00022004F02BFD1120FFF70CFD0120E071E068011D007C10B16079012804D00E20D0
:203D6C00FFF700FDE168091D08680E49083007680FB947681FB10020C8610B4F0F600B4AB9
:203D8C0040F2FF7000271060094C8F6109484C6106F0F4FC192003F06DFB98BDB80B0020EA
:203DAC00D021084000100440510007060000046002000040892C00000000000000000002AF
:203DCC001EF0040F14BFEFF3098169468869EFF3118102B400B5DFF89CE0F047284A116883
:203DEC0001EA000010605DF804EB1EF0080F03D101BC80F31188704704BC1EF0040F14BFEB
:203E0C00EFF309816946A1F1200114BF81F309888D464A604FF08070C8611A488861184B6D
:203E2C001868086040F201101860704702B401B4EFF3148100291CBF002282F3148802B44D
:203E4C0002B4DFF834E0F04701BC01BC00281CBF022181F3148801BCDFF820E0F0470448B7
:203E6C004FF08051016001BC80F3118800BF00BF04ED00E05167000011AA0000A7AA0000E9
:203E8C00EC160020393E0000F8B506F001FD2A4C0746103CD4F89C0010F4602F2BD0D4F80B
:203EAC009C00400CC5B2680807D2A80803D2E80828BF022502E0012500E000256E1D70B211
:203ECC0002F016FCD4F89C3005F111010120884023EA00013846C4F89C1006F0E1FD04EB92
:203EEC008500D0F88C704FB1D4F8880013A20CCA3146B84702E0384606F0D2FDD4F89C008B
:203F0C0020B104F1FC00002106F02AF994F8A30080080FD3D4F8987037B1D4F8880009A245
:203F2C000CCA6FF00101B84794F8A30000F0FD0084F8A300F8BDC046C80B00200000000056
:203F4C000000000800000000000000802DE9F0412D4C0546A41C20781F4690460E46ADF13D
:203F6C00380D012803D0FFF7ABFA012020705EB1B8F1000F6E6007D0C5F8088006F088FC7D
:203F8C00617819B106F08CFD002038E0491CC9B2617006F085FD01241FB9684606F0A4F954
:203FAC006F46386828607868E860387A2874F8686861386900B1A8610021782205F120004D
:203FCC0001F09CF805A800212422082306F096FC8DF82C4005F13800002105AA04F0FEFCAC
:203FEC0005A800212422082306F070FC05490B9505F17000002205AB04F012FA28460EB0C2
:20400C00BDE8F08141AA0000B80B0020F8B506F0F7FB06F007FC044604F00C000C2845D08F
:20402C00E0081ED204F06AFF234E376805460120014605F05BFC31686943884211D21F4CD3
:20404C008220B0FBF7F0291A204606F06DFD204606F0F9F80120FDF70FFC204605F0E8FB6C
:20406C0025E0200922D21648610939BF016821F00101016841F0010102460160D2F898002F
:20408C004FF0805440F00300C2F89800D4F8B8018069014620208847D4F8B801094C806BF3
:2040AC002168804701202060206800E030BF06F0ADFB01F08BFCF8BD08B300009C13002057
:2040CC008C2108402C200940F8B50D46EEB2290824BF26494D40264BB400195985EA010291
:2040EC000240C2F3006C234A00EA05078143FF323A4000F4E0270A43B7F5E02F01D1510E4B
:20410C0015D300F4E0215CEA010710D002F4E027B7F5A02707D0B7F5803704BF22F40032D3
:20412C0042F4A02203E022F4803242F4C0221A51114CC10D04D3A4F18001C5F380528A55CC
:20414C00000E11D306F0A4FB290E03D201210022B14002E00121B1400A46503423688B4369
:20416C001A43226006F09CFCF8BDC046006000A000100840007F077F802002402DE9F04185
:20418C000E46294990461C4606AF8C4672680878BB8851783F881278002502EB012242F66A
:2041AC002321521A29D0521E052A18D9921F0CD0263A34D1072F30D8C7F10700984298BF9A
:2041CC0083B2674407F1080121E0B84225DBC01B9842D8BF83B22380DCF804000BE0F068B8
:2041EC0006F0B4F880B2B84217DBC01B9842D8BF83B22380F06839180AE0082F0DD8C7F168
:20420C000800984298BF83B207EB0C010F31238040461A4600F044FA03E0072501E0258099
:20422C000A252846BDE8F081F40D002038B505464A78284C087800EB0220ADF80000628814
:20424C00BDF8000090423AD1BDF80000891C000106F036F86088A388401C81B261808B42F1
:20426C0029D102F005FCE0B12846002101F078FD05F0D8F821780843207004F007FB05F09B
:20428C009BFD90B12078410805D3A3692946032000229847207810F0060F06D006F01EF951
:2042AC0003E02846012101F05BFD0025257005F0FDFF658038BD284601F0F8FE38BD002047
:2042CC006080207005F0F2FF2846032101F048FD38BDC046501100202DE9F84F8046087895
:2042EC001C4616460AAF022831D02348DFF88C90D1F804B08569102282464946584605F02B
:20430C0055F9002740B9002D33D08AF80140012041463246A8472CE009F11001584610223A
:20432C0005F044F910B925B30220F1E709F120015846102205F03AF990B9012C05D130789D
:20434C00002818BF8AF80A0013D1802711E048684278007842F6021500EB0220854201D074
:20436C000A2706E0388832460090404602F09CFD07463846BDE8F88F50110020A0AC00007D
:20438C00264838B550380468B4F1FF3F08BF002405F082FF224817490025103805600120C1
:2043AC0008601549086002F0EBFA1448006820B1134800682046FFF709FB1248124905601A
:2043CC00124C0A686FF35B4244EA0200086010490868C0F30130012806D10A680D481040A6
:2043EC0040F400320A6008600B4908680028FCD138BDC0465C600C40082204438001284360
:20440C00000120438C210840482003400000390104000940FFFFFCFC0C0068426C1300508A
:20442C0094046042B0B501468B681C68E26948682262520824D2D0F8A01049680A685D69E3
:20444C00D2F80415294206D01C68616A21F002016162C2F80455D2F8042519690A4230D032
:20446C001A68516A21F001015162D0F8A0205268196912683830C2F8041503F01DF8B0BD3F
:20448C001C68626922F001026261D0F88870AFB9626822F0020262601C68626A22F00302B8
:2044AC006262D0F8A0005A6940681C6900682243C0F80425084604F06DFEB0BD0846FEF7C9
:2044CC0011FFB0BDF0B520480127F84201D002F079FC204D204F214EBD4206D203CD04783E
:2044EC00A4003459401CA047F6E71D48002800D08047164D164FBD4202D210CDA047FAE7FB
:20450C00F0BD03251BE0416808300A1C2A400BD11A1C2A40AB4305D0046804300C600431CE
:20452C00043BF9D1131C05D0047801300C700131013BF9D1021C2A4001D0A843043003681E
:20454C00002BE0D17047C046FFFFFFFF0000000000000000D0BB000000BC000098BB000020
:20456C006D6B00002DE9F84304F0C4FD244C0025A5704FF6FF70A08203F04CFC1F4E012305
:20458C002A462070314604F1A80002F01FFD02232A4604F1CC00314602F018FD04232A4682
:2045AC0004F1F000314602F011FD042704F14808102240462946E77000F0A0FD04F15809C2
:2045CC0010224846294600F099FD04F1200635602572072065721021A0724246E572022091
:2045EC0003F0B6FE032010214A4603F0B1FE38463246014603F0ACFEBDE8F88395A0000053
:20460C009C0800202DE9FF41244D8046681C00780E46082814BF04240024084603F094F8D1
:20462C00684601F007FAA4190026E178A0786E8000EB01202E7080106946A880204601F024
:20464C0007FD18B3204606F030F8E861000BE88005F0BAFCA8B1E888A988C4B200EB2120F8
:20466C00C7B2A74208DB3F1B7F1C204606F0DCF9641CE4B27F1EF8D14046314601F016FD46
:20468C0008E04046022101F06BFB03E04046694600F0AAFD0090BDE8FF81C046501100203B
:2046AC00002A4AD05FEA000C8B071CD1830722D1102A08D370B4103A78C978C0103AFBD246
:2046CC0070BC103238D0042A2CD3082A05D30C2A24BF08C908C008C908C008C908C09207A4
:2046EC002AD0920F22E00B780370491C401C521E22D08B07F7D1C30714D18307D8D0121F8C
:20470C0012D308C903801B0C4380001D121FF8D20AE008C903701B0A43701B0A83701B0A0F
:20472C00C370001D121FF4D2121D05D00B780370491C401C521EF9D1604670472DE9F84383
:20474C00224D884606464FF0FF3105F124008146FFF7A2F900200CE0FF2909D02A688A4278
:20476C0004D905EB8101D1F894700FB1002627E0401CB8F1000F03D018F82010FE29EBD11A
:20478C000024346074600127B46011E0FF280ED005EB80000B787268C0F8946007FA03F0E2
:2047AC00104370600A680A49304604F039FB641CB8F1000F04D008EB84010878FE28E5D187
:2047CC00484601F06BFA3046BDE8F88398220020007FC76700B5401EADF1240D1CD0C01E20
:2047EC0013D0401E14D0401E3BD106F02DF803F0F5FA401E694680B203F090FD88B305A979
:20480C0040F21530FEF7CEFA2BE0174806F06CF9142004F0E7FC24E04FF4417007A9FEF7EB
:20482C00C1FA00218DF804109DF81D308DF803109DF81E208DF801309DF81C008DF802209C
:20484C009DF81F108DF800009DF821308DF805109DF820208DF8073068468DF8062005F0A4
:20486C00D5FD09B000BDC046A40500202DE9FC41844608AF0878DFF888803F88FF240228CE
:20488C0030D14E687578307842F6021600EB0520801B21D04DF2EF65401B04D0801E18BF9D
:2048AC00B0F1030016D19FB9012B0FD11078CA681070C96800254046884205D0001D884261
:2048CC000CBF0624022410E02C460EE00D250AE00B2508E00A2506E00097604602F0E4FA0B
:2048EC00054600E00125FF2C07D040460830006818B1016809B1204688472846BDE8FC8182
:20490C00241000202DE9F8432020EFF3118780F31188214CA068012106F0FCF84FF0010956
:20492C004FF0000865692168A4F81C906A1A2168A4F81E80461B401A904227D387F31188A4
:20494C0040464519361A4846294600F089FCB042F7D92021EFF3118781F31188E18B012985
:20496C0003D14046294600F07BFCB0F1FF3F06D0A169801B814238BF081C411901E0A0697F
:20498C00291805F025F9A4F820902560A4F81C8087F31188BDE8F883C0170020F8B50F4682
:2049AC0001464C688E683846203804F10C0432D0401E2CD0401E27D120781578012814BF4C
:2049CC0019491A49FF2D41EA05011BD0D4F8900001F000F998B93068B0F1804F14BF232207
:2049EC000B22D4F89000294604F004FAD4F8900094F8811001F0F6FC84F8815012E04FF0E7
:204A0C00FF30F8BDFF25F1E76FF00100F8BD002084F89800F8BD21780020012908BF0120E1
:204A2C0084F898000020F8BD0004C0A000200080FEB5044622481646089FC069618250F8BF
:204A4C0021201C4800681D4690420DD01B480068009000220191184E029231888F23384639
:204A6C0005F00AF90120FEBD084602F0E1FCA66068696060286AB0F1FF3F08BFFF202074B7
:204A8C000026E660288B00280EBF301C0120E0600146A88C10B141F00200E060204601F043
:204AAC0025FD0346384605F07FFB002814BFD81C301CFEBDF4B20000D2B20000E0B20000E0
:204ACC00CC16002022482DE9FE4F801E028880465FFA92F1100100F47042801A1FFA80FB4C
:204AEC00B8F80200C5B241185FFA81FA0021AA45019124DBAAEB0506761CA8420CBF0424A4
:204B0C000024AA45D8BFA34513DD284621466A4605F03FFF0427E94619F8011B019803F03C
:204B2C009DFE7F1E0190F7D1241DA4B2B4F5805FE7DBB8F802006D1C761EEDB2DDD1019842
:204B4C00002103F08BFE002103F088FEBDE8FE8F561100202DE9984305F09AFE1F4CDFF899
:204B6C007880814604F1E000007850B94446A0680146022088470746102002F093FA2FB36C
:204B8C0020E001F009FA002820460FD1144909683222B2FBF1F101B9012100F1300420468F
:204BAC0005F0C2FF204605F04EFB0FE044460022A16880F8E020022088470746102002F013
:204BCC0071FA1FB1A068014603208847484605F067FFBDE89883C04650B2000090130020D9
:204BEC0008B3000070B51F4CA568064605F074F94FF47A71401B4843050C04F08FFA216977
:204C0C00401A48BF404240F6B831AD19A94211D306280FDAA268E1688A420BD8206848B157
:204C2C00891A114A51438A0C02EB1141884288BF011C08E00D49486840080ED208687D21AF
:204C4C0000F0FF004143C82905D3B1F57A6F88BF4FF47A6103E0C82101E04FF4FA6108467F
:204C6C0070BDC0469024002040420F00AC3F0050F8B5001D84B214F0030002D0241A241DFD
:204C8C00A4B205F030F801461948102C47680160C8BF8768388800221646C30BDD0319D155
:204CAC0026B984420ADD3A46012617E01388C3189BB29C42138011DC174618469FB1001B77
:204CCC0080B20428B4BF3C88385344F400443C803F1D08E080F40040002680B2C719388880
:204CEC000028DAD10027084605F081FA3846F8BDB0140020B0B50446A768ADF1280D27BB66
:204D0C000C20FFF7B5FF071C16D0684600212422082305F0DBFD002306976A466168ADF8BD
:204D2C0010301448059303F001F9386038B905F053FA384603F098FF6FF0030018E0E068D1
:204D4C0078602069B860A7600AE004F0CCFF0546386804F06DFD2069B860284605F047FA90
:204D6C003868616805F0E0FE386805F06CFA00200AB0B0BDD1A70000B0B514460F4605F028
:204D8C0087FD85B219480068007808B904F0DAFE87B1384604F01FF940B114B14FF0FF3098
:204DAC0020700820FEF774FC002419E038687968BA6803E04FF480700122014603F02CFA71
:204DCC000B49012008600B4908684008FCD30A4800684168022088470CB100212170044602
:204DEC00284605F05DFE2046B0BDC04660B20000A802504208800240CC010010F8B50E461A
:204E0C00044605F0DBFB0546304604F035F8071C03D1284603F038FB26E0F87F10F0070F71
:204E2C001BD113487968884202D079682166786010A090E8060004F15807284687E80600FD
:204E4C0003F022FB04F138004FF0FF31FEF724FE04F1680696E80300F8BD284603F014FB7A
:204E6C00F87F10F0070FFBD102200021F8BDC046CD6A00000200000000000070B0B5174961
:204E8C001C481D4A0F68C0691549C2F8080DD2F8083D99420ED06FB1124B1B6800240F2C47
:204EAC002CBF1D1C0D68091D641C05607F1E00F10400F4D10D48D2F80C7D0B4D016820243E
:204ECC0027F47F4000EB01202918C2F80C1D084B82F8224D1868C2F8140DB0BDE4B2000022
:204EEC0010100000F4B200000000FA05F8B20000ECB20000CC16002000E000E070B50D465F
:204F0C001B4A1A4904462B4603F06AFE2061284605F04AF940BB184801220021A568036869
:204F2C0022751448A161002D18D4A1688A408069A168E26005F0D0FC206405F057FBEFF3E2
:204F4C0011850646202080F31188204605F014F985F31188304604F0D1F905E0E160C0186C
:204F6C002146206404F05EFE002070BD699C0000957C0000881600201CB30000F8B50E46F9
:204F8C0005461446A969EA691F462046FFF788FB64602FB1EA6920463946082302F012F9B3
:204FAC00E468D6B9E8686969AA68079B05F0D0FC071C08BF002020D005F0BEFC6968396060
:204FCC00696849687960696849680F6069684F6005F014FB07F1080605E06A6930460021A0
:204FEC00083A00F08BF82868B0F1FF3F18BF3060286908B1616831503046F8BD2DE9F04312
:20500C00ADF13C0D05F0F2FA1A4C184D002680461C3C684600213C22082305F081FC54F897
:20502C00042F6868AF6806902B680897694605920F480493002202F083FA071C10D004F0C6
:20504C0052FE8146384601F0FFFD48B1484605F0CEF82D1D761CDCD0404604F04FF901E055
:20506C0002F0A4F90FB0BDE8F083C0466CAB000089A40000BC1400201CB5042004F0D6FCC9
:20508C00022818D0032816D016480068C0F38150032814BF41F288324FF47A721248144CC3
:2050AC00016854342046B2FBF1F105F03DFD204605F0C9F81CBD03200C4C009000214FF06F
:2050CC0040521C23204601F039FF012000214FF4007209230090204601F030FF022003F016
:2050EC0045FB1CBDB43F005008B3000000A00C4090130020002213460A46194671B510F08E
:20510C00030F0BD0002A82BF00F8011BB2F1010210F0030FF6D1002A08BF71BD11F0FF0178
:20512C0041EA0121042A18D341EA0141082A0FD30E46102A08D30C460D46B2F10F0312F0B7
:20514C000F0272C0103BFCD812F0080F18BF42C012F0040F18BF40F8041B12F0020F18BFC2
:20516C0020F8021B12F0010F18BF017071BD70470246184808B50068C0F3046005F087FA55
:20518C0000EB2270401C162805DA10F10A0FB8BF6FF0090000E015200F49104B00F01F003D
:2051AC0040F4F85008801868800803D20C490020086001E042F040620A49D00E930E80F02E
:2051CC00010000F00100086083F0010000F00100886008BDB81200506E62084000000940DC
:2051EC0094042A4300002043FEB51C4D0C462D1FE968064605F022F940082CD330460821EE
:20520C00002204F0CDFB0746019727B32A4602F120001021083205F0D5F808254089ADF89A
:20522C000250ADF8000022783A702188019809124170A17881706188231D0912C170196819
:20524C00051D30462960694604F040FD18B168461B2104F0B3FB05F029F8FEBD5411002096
:20526C002DE9F04780461A481A4C00682418204605F05EFC0E464FF0FF374FF0000A814615
:20528C0021E04D46284605F055FC8146A88A012819D1B8F1010F0ED1E86886420BD1286991
:2052AC00002808BFA5F814A002D0E9684018E860A969E8698847A88A012804D1E868801B92
:2052CC00874288BF071C4C45DBD13846BDE8F08704B30000C01700202DE9F84F061C2FD08C
:2052EC001848DFF8649001780024824626E0A00036F800804FF6FF77351847451AD0AF7819
:20530C00C7B109F1180009F10302112105F05AF85FEA000B0ED0780804D3404601215A46AE
:20532C0000F07EFAA878800804D3288802215A4600F076FA9AF80010641CE4B2A142D6DC5A
:20534C00BDE8F88F9C0800202410002038B5054601201A4C68712879B0B904F0C4FC21780E
:20536C00002904BF6FF00704051C15D0491EC9B2217039B904F03BFF606803F0A7FB0020B5
:20538C00687118E0054613E004F0ADFC05462078FF2805D16FF00604284604F028FF0BE098
:2053AC00401CC0B20128207002D1606803F0A5FB284604F01CFF0024204638BD30180020C8
:2053CC0070B50646B079F5680628A5F108052CDA3079062829DA04F086FC154CB279910086
:2053EC000C3401EBC20161184968E1B104F0FFFE30792870B0796870307AA870B17988004F
:20540C0000EBC1002018F1684068083003F06EFCB179880000EBC10024186068406800F00C
:20542C003DFC002070BD04F0E2FE6FF0020070BDE014002038B519491A4C00204822C1F86C
:20544C00F30F94F8E200C1F8FF2F20B3012817D0022807D003281ED151F8310C00F024F859
:20546C000B2016E051F8315C2846FCF717FE40F2FF50A84202D8801CA842F1D2082008E015
:20548C0051F8310C00F0FCFC054800780028E7D0052084F8E400FDF791F838BD39400C4032
:2054AC005EB200009013002038B51A4CA0F5C060D4F8B810C4F8D4000029B8BF494200288E
:2054CC00B8BF4042814220DAB4F8BC00124D30214FF47F4208230090284601F02FFDB4F8FC
:2054EC00C00004214FF4F80212230090284601F025FDB4F8D00020214FF440620A230090D9
:20550C00284601F01BFD012000E0002084F8D80038BDC0469013002000A00C402DE9FF4193
:20552C000E460546194C7188E08A81420CDCB188814209DBF088218B884205D13089618B04
:20554C00884208BF18271DD0052002F0DBF97788B388ADF80270F288ADF804303189ADF894
:20556C0006208046ADF80810A08AADF80000684605F016F9071C05D1A57304F1F000414678
:20558C0002F010FC38460090BDE8FF819C0800201A4898B5D0F8781203680F0F03F0FF038B
:2055AC00802B28BF002301F0A5FC4FF0FF3478B1401E07D0401E012802D9801E19D01AE0E5
:2055CC00BFB118E0381C12D0801E14D1143311E03846401E0BD0801E07D0001F03D0401EEA
:2055EC0009D1163306E0152405E0142403E00A2401E00A335CB2204698BDC046A010005042
:20560C002DE9FC4117460E4605464FF0020801F0CFFA50BB03F01AF838BB05F0FF04C4F578
:20562C008074B44288BF341C8DF800808DF80350280C8DF80100280A8DF8020004F06EFF2C
:20564C006846042103F0F2F8361B651920B93846214603F0EBF818B104F058FFBDE8FC81F5
:20566C0004F054FFE719002ED1D1BDE8FC817047F8B5174A174B184C121D22F003019C4633
:20568C0021605E1A2068256860606768A660002001E025F8020BAB42FBD84FF6FC75B310F7
:2056AC002A4001EB830323F8040CACEB0202E82315403B80EC3DA1F8E850E83144F8081CAE
:2056CC00FFF7D6FA44F8040C606844F8080CF8BDB224002048410020BC14002038B5044619
:2056EC001848174DC03002686B68C2F30351C2F303405B0813D22B681D0511EB257103D446
:20570C001029A8BF0F2100E000211B0410EB237303D4102BA8BF0F2300E00023184640EAC6
:20572C00011002F47F4102F0FF03222C41EA004143EA010024BF02F08042104338BDC046D5
:20574C00AC3F0050B812005030B5401E4FF00004ADF12C0D0AD0401E04D0401E20D1FCF73D
:20576C002DFF1DE000F06AFE044619E001A821462422082305F0AAF806940D4DADF8144054
:20578C0009490794012201AB05F1780002F048FE064A23462C2105F19C00009302F056FA2E
:2057AC0020460BB030BDC046CD5D0000415400009013002038B50546880F26D302F01AF97A
:2057CC00124804F0DBFF1548801C0078012803D005F1380000F062FA0D48002404600220AF
:2057EC0002F0C4FF1120FDF753FF287C10B90E20FDF74EFF0748084A04721178447221B16D
:20580C001470C830042104F0ABFC38BD053D000000000460B80B0020B0240020B80B0020EB
:20582C00F0B50E4615460746ADF11C0D4FF6FF7103AA04F0B5F8024605921AB30020009095
:20584C00BDF80C00FF240DF11203294601903846029400F0E3FC041C0FD16889ADF81000BC
:20586C00700804D3384604A904F030FA03E0384604A904F0DBFE041C05D004A81B2104F0D8
:20588C009DF800E01524204607B0F0BD2DE9FF41984607460C461346404604F085FC054612
:2058AC0013B905F05BF80346002F12BF381C0F4800681A462146434605F07FF8061C10D1AD
:2058CC001DB9404604F070FC58B90A48006800900197074D0294298800223423404604F07F
:2058EC00CBF930460090BDE8FF81C0464CB3000080B3000034B300002DE9F041054615F8EF
:20590C00017B90460E461CE0B8F1000F05F101050BD0FF2C09D8022015F8011B401E41EA6A
:20592C000424F9D101E0042C02D315F8011B00E0394630462246FFF7E1FBA61901E006F8AD
:20594C00010B15F8010B8742F9D115F8014B002CE9D115F8010B2C7800022418D4D1BDE8FF
:20596C00F08170470146184880B5983000688A0CC0F38367C0F38F2022D241F307210029D9
:20598C000BD54A420021400805D17F0806BF0127381C4FF6FF70521EF5D1002910DD4FF643
:2059AC00FF72400040F00100824207D2780040F001070F2F92BF01200F27101C491EF0D172
:2059CC0040EA074080BDC046B8120050164880B507683FB315498B6803EA5300C00E21D2A7
:2059EC00134A106880081DD2486880081AD21068096810F0050F4FEA114101F0F00101F5CB
:205A0C00E0710AD1B9420DD2190F38BF40F00100D90E38BF40F0040003E0B94202D920F049
:205A2C000500106080BDC04628500940AC3F0050000009401FB5044601F0C6FD48B3164832
:205A4C000078022804D0032818BF4FF4F02001D14FF4F22010216A4601F0D6FD02F0DEFDD6
:205A6C00BDF806006080BDF80400FF2808BF002002A920800968201D0160FF219DF80C306D
:205A8C00E1729DF80E206372BDF80C00A2720012207200901FBDC04620180020184B48B36E
:205AAC00401E22D0401E1BD0401E11D0401E06D0801E24D1012922D11846001D1DE0052978
:205ACC001DD11168184610300160137903717047012914D111781846C170C068FFF7FCBBA1
:205AEC0001290CD11846801C07E0012907D11846401C02E0012902D1184611780170704708
:205B0C0024100020B0B5184C0546208C002701281BD1A08BC8B9A068012104F0FBFF2168DC
:205B2C00421A23686169C91A91420ED30127A968AA68AF824118E9606169091A914211D949
:205B4C00E968104604F044F8B0BD5FB903F060FEA78BA968012F0844E8604FF00100A8821B
:205B6C0008BFE083B0BDC046C0170020F8B570BB174C606848B3002080F31188202080F3A8
:205B8C001188606863692669F825B0FA80F0A5EBC0001B1805E06369B0FA80F0A5EBC00068
:205BAC001B189E4211D2184604F09CFE0746184604F0CFFD18B1B9696068884360603846D0
:205BCC0000F0ECFC60680028E5D100202080F8BD241300202DE9F041071C0E4604D0144C7D
:205BEC002068F5B2A84202D80220BDE8F08104F124004FF0FF318046FDF74EFF04EB850467
:205C0C009434206860B979680120A84027603246084308497860384603F002F9002400E042
:205C2C000124404600F03AF82046BDE8F081C04698220020007FC7672DE9F8438146EFF388
:205C4C001188202080F311880125114E114CF561114F6560F86A016A14208847D9F8100045
:205C6C00810C14BF000C0420A06138680268232100209047C6F88052206820F4C02040F402
:205C8C0080302060356088F31188BDE8F883C046000024430020094084010010034670B526
:205CAC002020EFF3118480F31188144800681D18181804F04EFDB0B904F098FC0646284602
:205CCC0004F010FE054601202874E86808B103F0AFFDA868214603F053F984F311883046CA
:205CEC0003F00CFB70BD187A40083ABF5889401C0120588184F3118870BDC04614B300005D
:205D0C00D0B5044604F012FE00F09EFF071C08BF6FF002041FD003F0E6FF0146A2880F4839
:205D2C000023243030F80C6F5EB902804760A26882602373786820610024084604F057FA63
:205D4C0009E0964208BF6FF00204F6D05B1C062BE8D301F02BFB2046D0BDC046BC14002021
:205D6C002DE9FC41154E0D4606F114042168804604F064FB093C4008F5721DD340460121D1
:205D8C00002203F00DFE07460197AFB1304610212246203004F016FB40890126ADF8000099
:205DAC006946ADF8026040463D7003F08FFF18B168461B2103F002FEBDE8FC815011002024
:205DCC001648144A144908B5E4300078801E0A2807D8DFE800F01814100614100614100659
:205DEC0009C004F0BBFE11E010688008FCD250688008FCD20AE008688008FCD306E008684D
:205E0C008008FCD202E010688008FCD3FCF7D6FB08BDC04634600C4038600C409013002059
:205E2C0010B504F035FD114C611C097829B10E490C6804F035FE204610BD04F031FE04F0FA
:205E4C0021FA0DA20CCA04F037F9A26C002314001B1807A044EB010490E80600C91842EB93
:205E6C0004021046001C10BD04300440B80B0020000000127A00000000093D0000000000A4
:205E8C00134910B50A684BF2F5214843040AC2F38140012806D103F041F901F08DFD6043B6
:205EAC0004EB90540C4901F1E500007830B90948006820F07F402418640802E0002081F8CB
:205ECC00E50006480460210C41600123836010BDB43F005010200940901300203C600C4016
:205EEC0098B5044620208DF8000004F6FF706FF30B04001B00F6FF70000B1ED0074600F0AA
:205F0C0057FED0B902F0A2FBB8B9200C8DF801008DF80340200A8DF8020004F0FFFA6846D1
:205F2C00042102F083FC10B104F0F0FA98BD04F0EDFA04F580547F1EE1D198BDB0B50446D0
:205F4C0004F09AFC30F0010008BF6FF004041ED004F0ECFC054603F0C6FE01460D480622CC
:205F6C00303030F80C7F6FB1A388BB4208D1406800680022854208BF0122A260002403E0F5
:205F8C00521EEED14FF0FF34084604F030F92046B0BDC046B014002008B5012003F046FD18
:205FAC0001281DD00F4834210122002301F0ACFB002808BF002014D00B48006803F0FEF89E
:205FCC0003F08AFF0A4A93681168D060C01A074BA1EB91014343180C884228BF011C11600E
:205FEC00012008BD00A00C408000001040420F0090240020B0B5144D28680004070C21D070
:20600C0003F08CF8114991F90720824205DD10F1800FB8BF6FF07F00C8718C88BC4210D834
:20602C000A68D5F8D40F801A801C1F2888BF1F203F1B4008C7404FF6FF70E719B84238BFE1
:20604C00071C8F80B0BDC04634100940A424002098B5154C027A437A278802EB0322837A75
:20606C00B7F5005F4FEA82020CDC5FB1032B04D0140B07D0B2F5F83F04D8B2F5805F03D049
:20608C00012B01D1002098BD0F884FF6FF71B94202D00FB1008808B9012098BD00218742FF
:2060AC00B8BF0121084698BD54110020FEB5154D0C462969064604F0C1F9400821D330466E
:2060CC000221002203F06CFC07460197CFB12A4602F120001021093204F074F9022540896F
:2060EC00ADF80250ADF800003C700199221230464A70694603F0EAFD18B168461B2103F01F
:20610C005DFCFEBD50110020F0B5154C241F65682879ADF1340DFDF725FB04F0B9FB2668FE
:20612C0007463078A0B901A800213022082304F0A9FB0694A87900230990084A00936979E8
:20614C0001AB301D01F082FD0120307003F0F0FA384604F0A5FC20460DB0F0BDBDA90000E3
:20616C0074B2000098B5134C0C342068011D4068406810B180472168091D086808300168C3
:20618C0009B94768A7B10C4A1C321768002FFCD00023136029B1084680472068001D00687A
:2061AC000830406800B180470448503803F080FA98BDC046B80B002000100440510007064A
:2061CC00F8B5074604F064FB124C06462079E0B1401EC0B22071C0B904F1C800082103F0DF
:2061EC00BFFF97B1E068703003F022FBE0680A4DC0683F1A286804F1A405B7FBF0F1284646
:20620C0004F092FC284604F01EF8304604F048FCF8BDC046B80B002008B30000B0B504AF59
:20622C003F88002F18BF0B2025D1087802281FD14D686C782F7800204FF6F17507EB0427A2
:20624C007F1B012F0ED9FF1E0CD07F1E1CBF011C0A200FD105241C80C9680B68136009798B
:20626C001171B0BD01241C80C96809781170B0BD002101201980B0BDB0B504F045FC0028B8
:20628C0008BF00201FD010480468002C0ADD00250020294604F0A2F90021FEF72FFE6D1C36
:2062AC00641EF5D10948006858B1094D07460024286B50F824000021FEF720FE641C7F1EB1
:2062CC00F6D14FF0FF30B0BD20B3000030B300008816002030B52025ADF1540D85F3118862
:2062EC00124C01E001F00AF960680028FAD06068A369F821B0FA80F0A1EBC0015818606120
:20630C0004F016FC206100232381022004F01EF983F3118885F3118804F036F8216904A87E
:20632C00103104F033F915B030BDC0468816002038B544688568D4F8A00001F067FED4F866
:20634C009C0003F0C4FA2968486820F00200486004F11C0004F0D6FB04F1380004F0EEFB09
:20636C00287BFDF795F9207818B904F16C0004F0E3FB04F1C40003F0CBF904F089FA002148
:20638C0084F8D91004F08CFB38BD704710B502F081FC124CE06000B302F07CFC20610028CD
:2063AC0008BFE06817D002F075FC606178B1E06803F01EF9206903F01BF9606903F018F9DF
:2063CC00074A04F12000102101F0BAFA10BDE06803F03AFD206903F037FD10BD5011002038
:2063EC0094AC000038B50C4620B141680122A240114201D1022038BD914341600D48002568
:20640C00231800EB8401C1F8945003F140010978FF291ABF406850F8211044F0204106486D
:20642C00FDF752FE20464FF0FF3103F029FB284638BDC04698220020007FC76738B5134DE3
:20644C0095F8E100002410B91148007860B104F01FFA95F8E310002906BF012185F8E310E6
:20646C00012404F01DFB0CB1002038BD022002F095F90E20FDF776F902F0E6FF01280EBF0D
:20648C000120002085F8E20038BDC046901300205EB200007FB5866831684568486820F05A
:2064AC00020048603168486920F00F00486130680321016202A804F041F80B4800680468F7
:2064CC00286900906869074B0190297E03EB81010A6A297B306853F821300399A047009065
:2064EC007FBDC04654AC0000C401001010B50446B4F91200E168034689080BD3217C2029C4
:20650C0008D30F48406A0D4940F82340184603F00FFE06E0A16803F00BFEB4F91200404218
:20652C006082217C184603F029FBE068400802D3184600F09FFF0020E06010BDCD3D0000D3
:20654C00CC16002070B504F0B7FA0446A1601069E0605069206190691D46B0F1FF3F08BF23
:20656C0005200026606101206169A6838840A061D069094B606261692062586904F0ACF931
:20658C00A06204F0DDFA0346284603F00DFE002814BF981C301C70BD241300202DE9F8439D
:2065AC0007460023124CBB83B86A238025692061E668E760786AD4F80880A060386A7862A8
:2065CC00012003F0C3FF814683F31188BA683969F8689047202080F31188484603F0B6FF86
:2065EC002561E660C4F8088001202080BDE8F88324130020012838B51ED1012003F016FA1E
:20660C0001281BD003F080FC0D4D0E480122322305F1E00100680A70B3FBF0F404B9144661
:20662C003035284603F004F92846214604F07CFA284603F008FE01E001F0D4FD002038BD2D
:20664C009013002008B30000084610B500F0005100F00400084317D0012003F0E7F90E4CE8
:20666C0001280CD0094909686C3432222046B2FBF1F104F059FA204603F0E5FD10BD0448C2
:20668C0004F07CF80348046010BDC04608B300004D10000000100440F00B002038B5124836
:2066AC00104C0168114D0C40E1430160A10908D34068800905D328464FF40051C83003F05F
:2066CC004FFD14F4602F0BD0284600F19C010A6804F46024FC3014430C60002103F040FDC6
:2066EC0038BDC04620000E0008100440B80B002098B5044604F0CCF88446104890F8A3107A
:20670C00C90803D390F8A210A14213D0B0F8A0300B4F012202FA04F11943A0F8A010391DE6
:20672C000B6804F10C07BA4093430B600F680FB900210170604604F0B3F998BDB80B002048
:20674C0008100440F8B50346202484F3118803F04DFF064603F032FF0546002003F0F6FE86
:20676C0007460B490B48496A006800F0FF0051F820100020CB6080F31188486889688847CF
:20678C0084F31188384603F0E1FE05EB0620F8BDCC16002004ED00E070B5134C22692020A0
:2067AC00EFF3118580F311886068B0FA80F1F820A0EBC100616909188A4204D300202080B4
:2067CC0085F3118870BD03F011FF0646054803F0BAF80020208085F31188304602F08EFD6A
:2067EC0070BDC0461D6B000024130020DCB5044604F09CF801F072FF064604F03DF830F021
:20680C00010014BF002E6FF0040017D0606858B1B0F1FF3F05D0694601F048FF30B1074686
:20682C000BE04FF0FF3000E00020009070680099FDF732F9002700B901273846DCBD2DE99E
:20684C00F0478046D8F80450D5F8880000240474D5F88860D6F8049004F01AF805F1D80728
:20686C008246387848B119F0704F02D1042001F07DFF022001F07AFF3C70504604F010F9A4
:20688C00AA68C5F88840404631469047BDE8F087F8B5124C6678E578182002F0B9FE071C1B
:2068AC0019D00421002203F05BFD304602F072FD38727D720020B87204F14806FE6004F101
:2068CC0058033B6104F120027A6102F0B1FE024A394601F07FF9F8BD65AA00009C08002066
:2068EC002DE9F04104461148401C90F8008016460D46102002F08CFE071C12D00421072290
:20690C0003F02EFD404602F045FD38727C72BD72FE6002F08DFE044A394601F05BF9BDE83A
:20692C00F0810420BDE8F0818FAA00009C080020F8B5044603F0FAFF00F086F9071C19D045
:20694C0003F0D1F984460D480021243030F80C6F6EB94FF6F872028047600025856021719C
:20696C007868A060604603F042FC2846F8BD491C0629EBD300F01AFDF8BDC046BC1400202D
:20698C000F4908680028FCD1104A131D0D49186820F0030001430C480068C0080CD210689D
:2069AC0010F0030F0AD041F003001860106800F003000328FAD101E041F00101196070478E
:2069CC000C00684204000020B03F005000400340F8B516460C4603F05BFF02460F4841780F
:2069EC00832554B1641E02D0641E10D00DE08179012904D0B0F8A01005E0876A0FB98025A8
:206A0C0006E0806A818B318002E0032500E03170104604F045F82846F8BDC046B80B0020BF
:206A2C00124AF8B592F804C0D5789678577814780023B8B1401E14D0401E11D0401E0ED0F4
:206A4C00401E05D0801E18BF02230CD1654606E01046103002680A600079087103E02E463C
:206A6C0037463C460C701846F8BDC0462410002008B5684603F022FDBDF800004FF6FF713B
:206A8C00814202D0BDF8000008B9002008BDFEF719F8BDF8002001460020ADF802108A4235
:206AAC0008BF012050B1684603F010FDBDF80220BDF800100020914208BF0120C0B208BD85
:206ACC002DE998430446276E9946904607B1B8470020022100EA090001EA0801002808BF55
:206AEC0000290BD104F1580090E8060008EA010109EA0200002808BF002907D004F1680085
:206B0C0080E8000304F13800FFF7C8F8BDE89883F8B5124C606863692669F825B0FA80F0F6
:206B2C00A5EBC0001B18184603F0DCFE0746184603F00FFE18B1B969606888436060384634
:206B4C00FFF72CFD606838B16369B0FA80F0A5EBC0001B189E42E6D3F8BDC0462413002045
:206B6C00124938B58888D0B90D4D0120002488800AE0686850F824008047641C0CE0686858
:206B8C0050F824008047641C2868A042F7DC054800688047044D00242868A042E9DC38BDD4
:206BAC00BCB2000050B30000C4B200007413002011481CB500788DF8010003F0AFFC03F082
:206BCC004BFA03F0A3FC03F0A9FC0DF10100012101F02CFE6846012101F010FE044603F0F2
:206BEC0095FC002C18BF6FF0010004D19DF800004008E8D200201CBD9CB20000F8B50446EB
:206C0C00A1686068ADF104060025086003F009FF46F8040F002808BF6FF003000FD06D1C5D
:206C2C00F4D0074D6E46002756F8040B55F8041BA368044A02F09AFA7F1CF5D00020F8BD78
:206C4C00D8B20000898600002DE9F843804603F04AF80F4C03250026814654F80C7F5FB9E4
:206C6C003046C4F800800146A6600A4601F0F2FB606018B900F09AFB474501D1264601E01A
:206C8C006D1EEAD1484603F0B2FA3046BDE8F883BC140020B0B5054603F048FE044603F0C9
:206CAC00EBFD30F0010008BF6FF0040414D003F01AF80A4A002132F80C7F4FB153681B6840
:206CCC009C4204BF2971002404D0491C0629F2D36FF0040403F08BFA2046B0BDE014002056
:206CEC007CB5114D04460E46600807D3B0B20021009001220B46284600F020F9A00807D399
:206D0C00B0B20090002102220123284600F016F9E00807D3B0B2009000210C220223284609
:206D2C0000F00CF97CBDC04600A00C4038B50546287B00F00F00022818D10D4C2078012820
:206D4C0014D0FFF76DF8A9686FF070458908A1EB900085420ADDB0F1704FBCBF05490844F3
:206D6C00E168C96801F57A71814200DB002038BDB80B0020F6FFFF1F10B50178A23902D018
:206D8C002E391AD010BD4179132918D100890C4C01280AD12046F038817B022905D1F0305A
:206DAC0003F0A2FE03F014F810BD052000F0AAFD0146204600F0F6FF10BDFAF7C9FA10BDCC
:206DCC008C090020F8B506460F4D104F7388002417E0A00000EBC400321851689068D268A4
:206DEC0052B9AF420BD00A7855F822200346491C08461946904701E0FDF752FC7388641CCF
:206E0C00A4B2A342E5DCF8BD98BB0000A4BB000040F8043D40F8042D40F8041D019940F8F6
:206E2C00041D009940F8041D0B4940F8041D81EA0101A1F1010140F8041D40F8041D40F89B
:206E4C00041D40F8041D40F8041D40F8041D40F8041D40F8041D704789A5000070B5114CE1
:206E6C000025F826258101E000F048FB60680028FAD06068A3696269B0FA80F0A6EBC00144
:206E8C00581882420AD22269606103F051FE0146216102F11000103103F078FB2089002804
:206EAC00E0D170BD88160020F8B506AF3F880D460646E7B9022B18D15078147804EB002445
:206ECC0034F001000FD1E9680968304603F0B6FA844208BF00200BD0E9680968304622469E
:206EEC0002F0B8F8F8BD8020F8BD0D20F8BD0B20F8BDFEE7104A1068C0F30F314BF69A1083
:206F0C00884207D111680B20B0EB117F14BF0020042070472430884208BF01200BD04BF604
:206F2C004130884208BF032005D0213888420CBF02204FF0FF30704718130050B0B500EB4B
:206F4C004100102B04AF00F5007403D3103B00F50174120C3D889D4045EA024503F050FC8D
:206F6C00002700B90127064A394610680028FCD025600120106009B103F048FCB0BDC04648
:206F8C0000800C402DE9F843054690460E46222002F05EFB0C4CD4F80890071C11D03D7257
:206FAC0007F110007E8141461222F86007F11000FDF776FB4846394602F034FE2068FEF790
:206FCC006DFEBDE8F883C04628050020F0B50D4614461F460646ADF1240D00212422082363
:206FEC00684603F073FC00200590ADF8100008484FF47A71A2B26B4600680697B1FBF0F0F7
:20700C0080B229464243304601F00AFA09B0F0BD08B300002DE9F041044698460D461420BC
:20702C0002F0F6FA06AF061C13D03A78032103F097F93481002030744046F56002F0AAF966
:20704C00707402F0F5FA044A314600F0C3FDBDE8F0810420BDE8F0818F9D000038B503F08E
:20706C0045FAFBF703F94FF08055D5F8D8010C4C036801210A4620469847D5F8D801426853
:20708C0001212046904701F0F9FFFDF7B7FF00F0FBFA00F027FD03F061FA002038BDC04690
:2070AC000040034070B5104C0646204603F06CFC0025B0B9204603F011FD0446A068064224
:2070CC000AD0E068226900210346304698470546012D08BF012005D0204603F001FD041C8B
:2070EC00ECD1284670BDC04690130020B0B5202080F311880E484FF0FF34416982690460F1
:20710C0021F007015218083A026108480768002F09DD00250020294603F02CF9FFF7E6F9C6
:20712C006D1C7F1EF6D12046B0BDC046E8B20000CC16002000B5EFF3038212F0FF0F0DD0D8
:20714C006A46A2F1200282F309886FF0020E10604FF08071D1610849916170475DF804EB39
:20716C00694681F3098880F308884FF00200EFF3148180F31488704769710000F0B5064603
:20718C001D460F462C201346ADF1340D0021009002AA0B480195FDF7F1FE041C0CD00095ED
:2071AC0031463A4602AB02F0D0F8284602F0FCFF002808BF201C00D000200DB0F0BDC0467F
:2071CC0088B000002DE9F8430446D1F80C800868D8F800601D461746A7EB05094A46801B50
:2071EC00824288BF021C2046FDF75AFA646004EB09002760B542E06004468CBF321C2A1C09
:20720C004146FDF74DFA2560BDE8F883F8B50E4605461446A969EA691F462046FDF740FAF7
:20722C0064602FB1EA69204639460823FFF7CAFF6A69E46830460021083AFDF75FFF2868A2
:20724C00B0F1FF3F18BF3060286908B1616831503046F8BD0F4A01461068ADF1080D08B991
:20726C00002010600846801E12D0801E10D0401E07D001208DF801009DF801000028FBD1C0
:20728C0006E001208DF800009DF800000028FBD102B07047240500200E48B0B54578848A95
:2072AC000E2002F0B5F9071C11D004210A2203F057F8284602F06EF838727C811320387312
:2072CC0002F0B6F9044A394600F084FCB0BD0420B0BDC0469C08002089AA00002DE9F04182
:2072EC0003F018FB0D4D2B688046A3B105F194060024012707FA04F018EA000F07D056F86E
:20730C00240020B1026812B1214690472B68641CE4B29C42EED3BDE8F081C04698220020C3
:20732C000C4885460C4885446F4607208743BD460A486F4607600A48002803D07946491D7C
:20734C008E460047FDF7BEF802F0AAFE02F038FFFEE7C04648410020000200004C1800207F
:20736C008D4300002DE9F04104460E48057890460E46102002F04CF9071C10D0324604219C
:20738C0002F0EEFF284602F005F83872FC6002F04FF93946424600F01DFCBDE8F08104201B
:2073AC00BDE8F0819D08002000BF704708B5FFF7FBFFFEE738B50546094800688047094CD1
:2073CC00201D006810B1014628468847206800B18047054800688047FFF7E8FF38BDC04663
:2073EC0038180020401800203C1800200146B0B530201446ADF1380D139D009002AA0B48AD
:20740C000195FDF7BBFD071C0CD000952168626802ABFDF70DFB284602F0C6FE002808BF7B
:20742C00381C00D000200EB0B0BDC04628B000000F4A10280BD20F2818BF002015D11069F8
:20744C00116900F0020021F0020111610DE01038012100F01F03C008994020F003001218E7
:20746C00D2F80001C2F88011084000BF7047C04600E000E00F4A10280BD20F2818BF0020CA
:20748C0015D11069116900F0020041F0020111610DE01038012100F01F03C008994020F055
:2074AC0003001218D2F80001C2F80011084000BF7047C04600E000E098B50346EFF311846C
:2074CC00202080F31188988B98B90120988303F075F80746986A194603F00AFA064998694F
:2074EC004A681043486084F3118827B9FFF754F998BD84F3118898BD2413002008B50E487C
:20750C000E49006881420ED058B9002080F31188009002E00098401C009000980028F9D043
:20752C0006E0804704E0002080F3118802F090F9202080F3118808BD24B300005D9800002A
:20754C0070B506460B4615463C20ADF1480D0021009002AA0A480195FDF710FD041C0BD072
:20756C00314602AA2B46FCF7FDFA284602F01CFE002808BF201C00D0002012B070BDC046F7
:20758C0028B10000D0B504463C20FDF771FB071C14D000213C22082303F0C2F9207AB86169
:2075AC0060893862E0683861606839460022FFF7C7FF0646384601F057FB16B96FF00300F8
:2075CC00D0BD0020D0BD704710B50E4C04F1180004F11001FDF7B2F80028606008BF00200F
:2075EC000FD000F0C3FB041C0AD001F02FFC041C02D000F0E9F80446012C01D001F00EF8DA
:20760C00204610BD341500207CB516460D460446FFF7CEFAB8B903208DF800008DF80340F9
:20762C00230C8DF80130200A8DF8020002F076FF6846042101F0FAF818B93046294601F0E4
:20764C00DDF802F063FF7CBD0E480EB5F0388178062916D1B0F84010ADF80210B0F84230A3
:20766C00ADF80430B0F84420ADF80620B0F84610ADF80810CC3003F037FA01206946FDF7AF
:20768C004DFF0EBD8C09002000B500213C220823ADF13C0D684603F043F9094800F5B27186
:2076AC0007914FF4DC71089103210691054900236A4600F58A7000F071FC0FB000BDC04653
:2076CC009C080020FD300000F8B506460C48006844880579102001F09BFF071C0DD00221D0
:2076EC00152203F02FF83C81BD72FE6001F0A0FF044A394600F06EFAF8BD0420F8BDC0469A
:20770C003405002019A70000F8B51E4614460D18102E02D3103EAD1C240C03F071F80027D7
:20772C0000B9012707483B460768002FFCD02D88012101600BB103F069F82C403441A0B2A7
:20774C00F8BDC04600800C404178027802EB01220C494A80C378827802EB03228A80027B66
:20776C00437B02EB0322031DCA811A88CA80C2881B1D0A811B6801F10A021360807B08745E
:20778C007047C046101800200E4938B5CA68824210D1487801280DD103F07AF805460848F6
:2077AC0001F086FF0446284603F07AF904F0FF00012802D06FF07F0038BD4FFAA4F038BD96
:2077CC0001000304B80B002098B500F07DF8002808BF002015D00B4901F14402084600E052
:2077EC00083217683FB113790478A342F8D153794478A342F4D18A601068002100B1012196
:20780C00084698BD34150020B0B50F4601460D4883694B6044698C60257800222046BE2DBA
:20782C0018BF01224FB1BE2D07D110F8015BBE2DFBD0401E001B1B1A00E000230B601046F3
:20784C00B0BDC046CC160020F8B514460E46054603F072F884466868671E07400CBF00244F
:20786C00E41BA968A2198A4288BF002407D82218A719891BC0196860091BA96014466046AF
:20788C0002F0BCFE2046F8BD2DE9F0410446984616460D460E2001F0BBFE071C10D081207B
:2078AC0038700123FB70BC803D817E81A7F80C8001F0BEFE069A394600F08CF9BDE8F0810A
:2078CC000420BDE8F081FEE70C481CB50068009002F024FE0421684600F0A8FF18B102F027
:2078EC0015FE00201CBD0648022100F087FF044602F00CFE002004B901201CBD9EB200001C
:20790C00341500203EB505460020ADF804000A2001F07EFE041C0DD00421312202F020FDD0
