:20000000483F00200D4C000001CA011001CA011001CA011001CA011001CA011001CA0110B8
:1C00200001CA011001CA011001CA011001CA011001CA011001CA01103FCA011082
:20003C00F8B50D46EEB2290824BF26494D40264BB400195985EA01020240C2F3006C234A1B
:20005C0000EA05078143FF323A4000F4E0270A43B7F5E02F01D1510E15D300F4E0215CEAC8
:20007C00010710D002F4E027B7F5A02707D0B7F5803704BF22F4003242F4A02203E022F4D6
:20009C00803242F4C0221A51114CC10D04D3A4F18001C5F380528A55000E11D300F01AF89A
:2000BC00290E03D201210022B14002E00121B1400A46503423688B431A43226000F00EF8EC
:2000DC00F8BDC046006000A000100840007F077F80200240DFF800F049C10110DFF800F061
:0400FC0019C2011014
:200100003C000000000000000000000034010000000000000000000001000000000000006D
:1C01200000000000000000000000000001000000000000000800000000000000BA
:20013C00340000000000000000000000680100000000000000000000010000000000000005
:14015C00010000000000000000000000080000000000000086
:2001700030000000000000000000000098010000040000000000000001000000FFFFFFFFA5
:10019000FF00000001000000080000000000000057
:2001A0002C0000000000000000000000C4010000040000000000000001000000FFFFFFFF4D
:0C01C000FFFFFFFF08000000000000002F
:2001CC0034050000E401000099A1011095A70110A5C2011009B2011045B80110000000000B
:0801EC00000000002F000000DC
:2001F400280000000000000000000000140200000000000000000000FFFFFFFF00000000B1
:080214000800000000000000DA
:20021C00300500003002000069C201106DC101101FC2011095BA011000000000000000008E
:04023C002D00000091
:20024000300500005402000075C20110A9B601109DBF011049B601100000000000000000DE
:040260002E0000006C
:200264002400000000000000000000008002000000000000000000000000000008000000CC
:040284000000000076
:20028800240000000000000000000000A40200000000000000000000000000000800000084
:0402A8000000000052
:2002AC00240000000000000000000000C8020000000000000100000000000000080000003B
:0402CC00000000002E
:2002D00000000000340F0020040000000000000000000000200000007001000030000000E6
:2002F0001C020000600F00200400000000000000000000000C0000003004000018000000E5
:20031000400200006C0F002004000000000000000000000024000000480400001800000064
:2003300000000000740F002004000000000000000000000010000000A00100002C00000029
:20035000CC0100007C0F002004000000000000000000000020000000640200002400000067
:20037000FFFFFFFF9C0F0020040000000000000000000000280000008802000024000000CC
:20039000FFFFFFFFCC0F0020040000000000000000000000580000003C0100003400000089
:2003B000FFFFFFFFD40F00200400000000000000000000001000000060040000180000009E
:2003D000FFFFFFFFDC0F00200400000000000000000000001C000000AC0200002400000014
:2003F000FFFFFFFFE40F002004000000000000000000000038000000F40100002800000085
:20041000FFFFFFFFEC0F002004000000000000000000000054000000000100003C00000020
:1804300018000000000000000000000040040000080000000000000050
:1804480018000000000000000000000058040000080000000000000020
:18046000180000000000000000000000700400000800000000000000F0
:080478000100000058730000B0
:0404800006F0CCBCFA
:040484000100000073
:0404880000000E0062
:04048C0000000F005D
:040490003200000036
:040494000100000063
:040498003C0F0020F5
:04049C00000200005A
:0404A0000000000058
:0404A40001CA011078
:0404A8000000000050
:0404AC00000000004C
:0404B0000800000040
:0404B4000000230021
:0404B8007811002097
:0404BC00010000003B
:0404C000840F002085
:0404C400080000002C
:0404C8000000000030
:0404CC00000000002C
:0404D0000000000028
:0404D4000000000024
:0404D8000000000020
:0404DC00010000001B
:0404E000E011002007
:0404E400060000000E
:0404E800010000000F
:0404EC00E0100020FC
:0404F0000000000008
:0404F4000000000004
:0404F80000020000FE
:0404FC0000000000FC
:02050000704742
:020502002900CE
:020504000100F4
:020506002500CE
:020508002D00C4
:02050A002E00C1
:02050C002F00BE
:02050E000100EA
:0105100001E9
:08051400030000003473000035
:08051C000000000000000000D7
:0405240000000100D2
:0405280000000300CC
:04052C0087C401106F
:04053000380500008A
:040534003805000086
:0405380000000000BF
:04053C00900000002B
:040540009000000027
:0405440000000000B3
:04054800840F0020FC
:04054C00936A0000AE
:040550002000000087
:04055400F072000041
:0405580068720000C5
:04055C000DC30110BA
:04056000CF63000065
:040564002F660000FE
:0405680099C801101D
:04056C009BC8011017
:040570000000000087
:0405740067720000AA
:04057800B871000056
:04057C00D07100003A
:04058000A071000066
:0205840008006D
:0205860009006A
:02058800010070
:02058A0000006F
:01058C00016D
:040590000000000067
:040594000000000063
:04059800000000005F
:04059C00000000005B
:0405A0009D6E00004C
:0405A400B952000048
:0405A8009D5F000053
:0405AC0015590000DD
:0405B000635700008D
:0405B40045590000A5
:0405B8009D3E000064
:0405BC00736C00005C
:0405C000A94200004C
:0405C40011C8011049
:0405C80021C8011035
:0405CC000800000023
:0405D0002400000003
:0405D400180000000B
:0405D80028000000F7
:0405DC0020000000FB
:0405E0003C000000DB
:0405E4000C00000007
:0405E80034000000DB
:2005EC002DE9FE43AF4C0F460646F80B80F03581B80880F0C7806069B90F67D2A07A002850
:20060C0048D1380948D30025657001262672284603F097F8A44806F02DFBA4492A4604F154
:20062C004C0006F022FC607901281AD1A079C0B99F4E306870B106F0C3F96169236A326886
:20064C00401A000BE061C018B0EBC21F28BF256208D2206204F1C8004FF0005106F056F938
:20066C0031E0667104F1380140F60900088094F8450000F0F00040F0010084F84500658702
:20068C0094F8440000F0F00084F84400E563894E316018E0380914D2B80BC0F0FB8004F12C
:2006AC00280006F0EDFB061C08D0706830B17568F068B6F91C1082A20CCAA84727F400570A
:2006CC00E8E00020A07227F00807E3E0D8B1042005F0BEFEB8B106F073F9A0616169814274
:2006EC0026BF401A401E401A000BF060F06840F6C41100F58D708142F06003D340F2EE221C
:20070C00824200D9F1600025D6F818C06561BCF1000F0FD094F8450010F00F0F0AD1708CED
:20072C0040F60901814205D167A20CCA30466FF48071E047604904F14C002A4606F095FB24
:20074C00A07950B10220ADF80000684605F08EFDA571BDF80800A4F8A000012060702079E5
:20076C00A846401C2071192084F8078006F0FCF9756925B156A20CCA30464146A84727F0E6
:20078C00005787E004F13009484606F079FB061C5AD004F0A7FD4FF00008B269C6F81880CD
:2007AC007068B8B1F07F42F00202002300F00700401E07D0401E03D0801E06D146A002E08A
:2007CC0047A000E048A090E80C007568F068B6F91C10A847FFF786FC0546B4F93600401CD9
:2007EC006FF31F30E086206B1F30017801F07F010170484606F01EF82846FFF777FCF068D8
:20080C00B0F99410B4F9362091421DD1217801291AD090F8965095B9056885B1E1680968F5
:20082C00B1F1FF3F10D0254909687030B5FBF1F106F0FAFBF068703006F0F2FB04E080F8B9
:20084C009680404603F0CEFC484606F019FB27F0020708B147F002071CE0FFF743FC01460A
:20086C0004F12C0006F00CFB0646B5690846FFF73DFCA8080CD25EB1B069A843B0617068DD
:20088C0030B12A46F068B6F91C1075680023A84727F4804727B104F1C800394606F036F8BF
:2008AC00BDE8FE8388080020C13B0000E9600000141D002000100440E122000050730000A6
:2008CC000000000020000000000000000000000200000000000000040000000000000010D6
:2008EC00000000000000004000000000000000202DE9FE430646DFF8DC82DFF8DC92B27845
:20090C000024101C00F03581801E00F00D81401E012840F2E180801E00F0A880401E7BD040
:20092C00401E59D0083800F04681801E40F046814546B08895F83E70ADF80000052F45D0AC
:20094C0001208DF80A0005F1CC0006F09BFA95F83E0001281BD0042819D0032806D002286F
:20096C0004D0F28831897089B38907E0B5F84020B5F84210B5F84400B5F84630ADF8022060
:20098C00ADF80410ADF80600ADF8083020E0B5F84000F1888842D8BF081CADF802003189BE
:2009AC00B5F842008842D8BF081CADF804007189B5F844008842D8BF081CADF80600B5F846
:2009CC004630B0898342D8BF031CDDE78DF80A40684606F067F9F1E0454605F1F00006F012
:2009EC0051FA7078002840F0E980F088E882308928837089688305F1CC0006F0ADF8002848
:200A0C0040F0DC80AB6A002B00F0D8801B68E88A298B6A8B9847D1E0B08805F0E0FA4546F6
:200A2C002146062205F1380002F052FEEC822C836C83B079687305F1CC0006F023FA05F1D0
:200A4C00F00006F01FFA01244FF6FF706F79A8824FB9B079082814BF04200520A8702046A5
:200A6C0005F018FFAAE00320A870A7E0707858BB311D0A68454605F138000260898881802A
:200A8C000627AF707089A882F089E882308A2883708A6883F0784446287394F83E0001282E
:200AAC0018BF02280AD11F2004F0F2F94FF47A71024604F1CC00514304F088FBF07872898B
:200ACC00311D04F02FFB7BE0707831286FD14D4604202870204623E07778002F67D1454629
:200AEC00698AA878032A13D02A796F7921B9012A14BF6C712C7106E0174304D005F1A80038
:200B0C0004F064FBA878072814BF0420062007E0062807D02879002808BF0324DAD002209B
:200B2C00A8704DE00724D5E77078751C00283ED14246F7789078D1799FB9022816D00728ED
:200B4C0014D0062802D1517901290FD103280DD002F1A80006F000F840B9012005F09AFE98
:200B6C0004E08732204603F0EDFC28702878F0B924E07078D8B945460220102105F148020E
:200B8C0004F038FD0320102105F1580204F032FDF61C05F12C00B7883168878005F16802E6
:200BAC0001600120A979A87003F0CCFC40B108204D46287004E0B08806F068F8012C06D1F8
:200BCC004546686A18B1016809B1A8788847BDE8FE83C0466C0500206E050020F8B5A0F242
:200BEC00013517460E46022D40F20C818649874C874A884B2D1F0F2D04D9143D4AD0AD1E33
:200C0C001CD011E0DFE815F0BA00B500EB00DB00AE00A700FE009F009800100010009000B0
:200C2C0086007A006F006200282880F2EB80022E40F0E880398804F08BFBF8BD012E40F093
:200C4C00E1800A469078012800F0DC80D1783878D07081B9002800F0D5801078012800F0D9
:200C6C00A080042800F09D80062800F09A80052800F09780F8BD3878002840F0C38010781B
:200C8C00032800F09980072800F09680052800F09380F8BD012E40F0B5803878012840F05D
:200CAC00B180254605F1F00005F056FF002840F0A98004F13E01002002F068FE002840F0D7
:200CCC00A18004F1CC0006F0DDF8F8BD022E40F0998038880A28C0F29580B0F5486F00F325
:200CEC009180114614E0022E40F08C803888B0F5FA7F80F2878011460880F8BD022E40F0D5
:200D0C008180388806287DDBB0F5486F7ADC1946891CF1E7022E75D13888062872DBB0F59C
:200D2C00486F6FDC1946E7E7012E6BD13878062868DA1146891F0CE0012E63D138780428C3
:200D4C0060DA093105E0012E5CD13878082859DA08310870F8BD012E54D13878042851DAFE
:200D6C00C91DF6E7012E4DD1387804284ADC891DEFE7022E46D138881031BDE7012E41D1AC
:200D8C000A46D07801283DD091783878907061B9002837D01078012803D0042818BF0528C3
:200DAC0030D1012005F076FDF8BD387850BB1078022818BF052825D105F07EFEF8BD2546F0
:200DCC0000211F2205F18704204602F081FC39463246204602F036F90020EE710EE02546F9
:200DEC0000211F2205F16804204602F071FC39463246204602F026F90120AE7131462246D1
:200E0C0003F0A0FBF8BDC0466E0500206C050020B0050020AC0500202DE9F04F0128ADF197
:200E2C00140D40F0F280DFF81492D9F8DC00012840F0E9800220C9F8DC0006F0EDF80290CB
:200E4C00012003F053FE20B101210646C9F8DC10D5E006F0DDF803906E484FF00008C0F86D
:200E6C000080012005F0F4FA012818BFCDF8008004D1404603F06CFA0120009066486E4CD0
:200E8C00C0F800801934D4F8FF0F112005F046FF00280CBF46460126102005F03FFF08B1BA
:200EAC0046F002060F2005F039FF08B146F004060B2005F033FF30B1584800685849006B4C
:200ECC000246088890470A2005F028FF0028404618BF01204FF0805B0BF5DC7528B1286897
:200EEC005049006B0246088890474F480127076028688069014646F0200088474B4807602E
:200F0C0005F006FF00F001010191400815D2484805F063FE8246BAF1040FF8D0BAF1010F29
:200F2C0006D1DBF8D801406802464148032190474049086820F003000860404600F080F84C
:200F4C002868D4F8FF1F806B8047019801280ED0BAF1010F06D1DBF8D8014068024634480F
:200F6C00394690473349086840F0030008602A480760286840690146304688470B2005F0CA
:200F8C00CDFE28B128682649C06A0246088890470A2005F0C3FE28B128682249C06A0246A3
:200FAC0008889047204807600322C9F8DC201F4BC3F800802868406B014630468847012878
:200FCC00F8D1042003F092FD124807601A48D4F8FF1F01688909FCD30098012802D13846AD
:200FEC0003F0B6F905F08EFE082003F07FFD06460398C9F8DC7006F007F803F097F8029826
:20100C0005F0FEFF02E0042600E00126304605B0BDE8F08F0C40094000022243B8010010AB
:20102C00367100003271000028200860800104430040034024220840141009401C0E00201A
:20104C002DE9F84F82467A48DFF8D89135380068800880F0D88004F0E7FE0546784808301C
:20106C00D0F8008000244FEA2876761C5FEA98500AD2C5F13E0015F10A0F4FEAE000D8BFBF
:20108C0008208642B8BF061C634FD7F87C01C0F3046005F09BFD83463868C0F3044005F0C4
:2010AC0095FD06EB0B020090162A05DA12F10A0FB8BF6FF0090200E01522584B584F02F095
:2010CC001F0141F4F8511980396811F0030F18BF0124C90828BF44F00204BAF1000F18BF9A
:2010EC0044F00404494691F90730EB1A052B04DA8B79A34208BF888864D0DFF82CE10F2D31
:20110C00A5F10F0C25DB0CEB0513A3F1F00C4FEA2C27072F88BF07273E46062E88BF062611
:20112C005EF82600042303EB86037646F3581B1A03F0FF06E00824BFC3F307200644A008BB
:20114C0024BFC3F307400644600828BF06EB136601E0002637465EF827E0E0080EF0FF03D7
:20116C0024BFCEF307200344A00824BFCEF307400344600828BF03EB1E630098B6B2ACEB22
:20118C0007277E43801A06F1800603EB1623D8BF0120342208F0FF0742437A43B2FBF3F038
:2011AC004FF6FF72824238BF101C802D80B2888005DA15F1800FB8BF6FF07F0500E07F254D
:2011CC00CD718C71194A12681F280A604FF0000208D340F2FF11814206D24008521C8142C8
:2011EC00FBD301E01F208880124F11490F38000942EAC00247EA0200C1F8FB0F0026C1F81F
:20120C00FF6FBDE8F88F0D4F0B4E494608203760891D0870BDE8F88F3C1100506E62084026
:20122C00242208400C1D00209C130050082009403500094000E7A48030100940FDFDA400AB
:20124C00AC3F00502DE9F043ADF12C0D04F0C4FD05F008FB754E41F2883204237449F06096
:20126C0006F16C0003F0D6FB00241F200621746004F06EF85020ADF8060001258DF800506D
:20128C00ADF8024029468DF804506A46ADF80A404FF44870ADF808004FF47A70ADF80C00EE
:2012AC0040F20530FFF79AFC40F2063002210DF10202FFF793FC4FF442701E2106F14D02A3
:2012CC00FFF78CFC40F20730072106F11C02FFF785FC4FF44470294601AAFFF77FFC40F2B3
:2012EC00113002210DF10602FFF778FC40F21230022102AAFFF772FC40F2133002210DF1D1
:20130C000A02FFF76BFC4FF44570022103AAFFF765FC05F0CDFC0620A02104F019F8072068
:20132C00A02104F015F80820A02104F011F80920A02104F00DF8A8460494A1468DF81450C0
:20134C004FF481608DF8158004218DF8169004AA8DF8178003F0E2FF4FF48060294605AA14
:20136C0003F0DCFF40F2024029460DF1150203F0D5FF40F2034029460DF1160203F0CEFF1A
:20138C0040F2064029460DF1170203F0C7FF05F030FDFFF76FF805F009FB04F0A9FD02274F
:2013AC0003268DF8188004258DF8197006248DF81A6020498DF81B500DF11D000A68097913
:2013CC00026006AA0171484641468DF81C4002F0C5FC40460DF11902014602F0BFFC4146BA
:2013EC000DF11A02384602F0B9FC41460DF11B02304602F0B3FC05210DF11D02284602F046
:20140C00ADFC414607AA204602F0A8FC05F000FB04F0D8FF04F032FB05F0CBFC05F0D1FC89
:20142C0005F05AFB0BB0BDE8F083C04608020020096A0000407300002DE9F0411C46154629
:20144C008C4208BF854282BF00230022E5E0002C08BF002D0AD100290EBF00286FF0000061
:20146C006FF0000100F0E1F8BDE8F0815FF000085FF0000E002C08BF8D429CBF2C1C0025E3
:20148C00070C47EA01470E0CB44208BFBD429EBF5FEA044444EA15445FEA0545070A47EA94
:2014AC0001670E0AB44208BFBD429EBF5FEA042444EA15645FEA0525470847EAC1774E08EE
:2014CC00B44208BFBD4200F29380870847EA81778E08B44208BFBD427CD8C70847EA417729
:2014EC00CE08B44208BFBD4266D8070947EA01770E09B44208BFBD4250D8470947EAC167B3
:20150C004E09B44208BFBD423AD8870947EA81678E09B44208BFBD4224D8C70947EA4167F9
:20152C00CE09B44208BFBD420DD8E60146EA5566EF01B14208BFB84201D3C01BB14158EBCD
:20154C0008085EEB0E0EA60146EA95664FEA8517B14208BFB84201D3C01BB14158EB0808BB
:20156C004EEB0E0E660146EAD5666F01B14208BFB84201D3C01BB14158EB08084EEB0E0ECB
:20158C00260146EA15762F01B14208BFB84201D3C01BB14158EB08085EEB0E0EE60046EA0A
:2015AC005576EF00B14208BFB84201D3C01BB14158EB08084EEB0E0EA60046EA9576AF00D8
:2015CC00B14208BFB84201D3C01BB14158EB08084EEB0E0E660046EAD5766F00B14208BFF8
:2015EC00B84201D3C01BB14158EB08085EEB0E0EA14208BFA84201D3401BA14158EB080894
:20160C005EEB0E0EA34208BFAA423EBF2D0A45EA0465240A89D3734642461E4617460B4618
:20162C00024631463846BDE8F08170472DE9F843814605F061FB002100B901216B4E3068DE
:20164C000028FCD06C4D01242D1DEF6A346009B105F058FBDFF89881C7F3072008F1BC01EC
:20166C00086005F049FB002100B9214630680028FCD02F68346009B105F044FBC7F3844059
:20168C00C8F8C00005F038FB0146002001B92046014630680028FCD0ED69346009B105F0A3
:2016AC0031FBC5F38120C8F8D000B9F5C061C8F8B81000F0968098F8D80068B9C8F8D4107F
:2016CC00D8F8C000C8F8C800D8F8BC70C8F8C470D8F8D060C8F8CC60D8F8D410D8F8BC606A
:2016EC00002954BF02206FF00100454605F1C8031A6801EB41014018411000EB917002EBA2
:20170C00A0021A60D5F8C810C5F8C46000291CDD1E293DDDD5F8CC0030B93429B4BF1539F8
:20172C001E21C5F8C81025E02A29BABFD5F8C8000B381E20C5F8C800D5F8C4003F28B4BFF2
:20174C00401C3F20C5F8C4001FE0D5F8CC00032812D011F10B0FC6BFD5F8C8000B30201CEF
:20176C00C5F8C800D5F8C4000028CCBF401E0020C5F8C400032009E011F1150FC6BFD5F811
:20178C00C8001530201CC5F8C8000020C5F8CC00B5F8C400174E30214FF47F4208230090E0
:2017AC00304603F013F9009404214FF400321123304603F00BF9B5F8C80004214FF4F80202
:2017CC0012230090304603F001F9B5F8CC0020214FF440620A230090304603F0F7F8BDE87C
:2017EC00F883002088F8D800BDE8F88300800C401C0E002000A00C4000A00C402DE9F04F87
:20180C00ADF1840D00F0D8FC03F0BCF80026012804D104F097FF022808BF0126584908684B
:20182C00C0F38150012806D151F80C0C0127010E07FA01F006435348007804F019FC524D8A
:20184C002C46286038B1FF2204F1400107467F1E01F8012BFBD14D4909684FF0000901F027
:20186C00FF02FE2A1BD0DFF824C101F0FF074A460123FF2F0CD0B8427FD903FA07F73E420A
:20188C007BD101F0FF0147EA0909611881F840205CF8041F521C01F0FF07FE2FE9D109207E
:2018AC0000F0E6FF3948002124220823606001A805F0A2FB4FF0010804F1240001AA8DF8A8
:2018CC001C80414605F094FB236843B3002794354FF0040BBA4608FA07F0064219D119EA68
:2018EC00000F04BF07F0FF0141F4C04105D0E019264990F8400051F820102548FEF798FB6A
:20190C00F8B24FF0FF3104F0CDFD2368C5F800A001E0C5F800B07F1C2D1D9F42DBD30AA888
:20192C0000213022082305F05FFB0025FF2010210AAB1290174A009504F1080005F050FBAF
:20194C0016A828220823294605F046FB04F1600016AA1C9510491D952B4605F039FB0F49E0
:20196C0051F80D0C20F4F85040F4005041F80D0C4746C1F8FF7F0A4E376021B0BDE8F08F1F
:20198C00B43F00501D1D0020201B0020E8710000007FC767CD640000C94B00000D30094072
:2019AC00080009402DE9F843674C04F1240005F067FA15460E460090FEF794FB05F0010797
:2019CC008146B6F1FF3F0CD1A06A20B9B4F93600401C06B202E0A06AB0F91C60002084F8EB
:2019EC00A300304604F026F90326002800F09B80A16ADFF84081814269D0009FB8422ED01D
:201A0C003FB100990A68904209D0096800290091F7D1832E41D04846FEF768FB3DE004F167
:201A2C00A40004F073FC00980168AA0802D20A6802600846002202600091009818B94846DE
:201A4C00FEF754FB28E0C17F41F00401C177684604F0F0FE0146404603F064FDEDE704F106
:201A6C00A40004F053FCA8083ABF606A0068002060624846FEF73AFB0099C87F40F00400EA
:201A8C00C877684604F0D6FE0146404603F04AFD009808B1A808EFD28326E07988B9207ADF
:201AAC00012843D0244805F0E5F8022104F1C80004F02CFF6078012838D0204805F0DAF869
:201ACC0034E004F1C800022104F020FF2EE0A90803D3616A009100266662C27F0121B940B8
:201AEC001143C17705F094FA0446002F14BF1448144804F0BBFB4846FEF7F8FAA80801D324
:201B0C00009820B9204605F07FFA83260EE0C17F41F00401C177684604F08CFE0146404636
:201B2C0003F000FDECE74846FEF7E0FA3046BDE8F883C046B8080020ED050000192A0000C8
:201B4C000100020401000104880800202DE9FC415E4C574D574EDFF860815A4F94F8E41095
:201B6C00481E0B2861D8DFE800F07B2C43062343062343067664042907D001220A2945F897
:201B8C00212C14BF0220032004E02021012045F8211C024684F8E200002045F8390C08279D
:201BAC00C5F8FF7FC5F8F37F45F8392CBDE8FC81052914BF09200620002584F8E400356081
:201BCC0070E094F8E1700120383D002FC5F81B0004BF0620002102D00021F160032084F842
:201BEC00E400032045F8010C31603068800859D294F8E400012503280DD0002140466022E5
:201C0C000523009102F0E2FE94F8E400062814BF0A200720D1E70220009000216022052336
:201C2C00404602F0D3FE0420C7E705F0CDF9BDE8FC812249002622480E60012505600E207E
:201C4C0000F0ACFD022003F0FFFD84F8E45084F8E360BDE8FC81002038600C2578601FE07D
:201C6C001948006800680146202088472C3D41F61D560F2000214FF4C072072345F8010C85
:201C8C004046C5F803600225009502F09FFE404600214FF4C072072303F09AF801203860C3
:201CAC0084F8E45004F1780005F0BAF9BDE8FC8139400C4038600C4000A00C402C500C40D4
:201CCC0004800C4034600C40A00100101C0E00202DE9F84F9A4693460E468146FEF702FA2B
:201CEC00514C0090B4F93610B4F934000AAF401A40F6F8710140082980F28780B4F9340059
:201D0C00401C6FF31F30A086B4F9348004F0DEFA054609F1700004F0F9FAAE6085F81EB062
:201D2C00C5F804A0A5F81C80C5F80C9097E80C0041A003C8002605F110071040194087E822
:201D4C00030004F12400EE770768002F50D1294603F0E8FB002851D0A9F89480E87F40F05D
:201D6C008000E87789F89660607A40B1607830B10120A07266722779A671781C20710098FE
:201D8C00FEF7B4F9A06A00284BD1607860BBE079012846D0FEF7A6F90646207A00BBA86877
:201DAC0002F058FD224B2149E2681B68086040B93046FEF79BF904F1C800042104F0A6FD53
:201DCC002FE00968D26804F1A400891AB1FBF3F105F02AF904F1A40005F022F930461EE03C
:201DEC00144901200870F9E7192004F0BDFE18E004F12400294603F095FB48B9B4F9340034
:201E0C0000F6FF706FF31F30A0866FF0010805E0A9F89480E87F40F08000E8770098FEF775
:201E2C0065F94046BDE8F88F88080020141D0020507300001C1D0020F1EFFF9F20000000CB
:201E4C002DE9F041424C474D8046C8F38140401E02D0401E2AD025E0284620300168880C83
:201E6C0020D24FF4804020603A48D0F802204B0AC1F3033703F0800322F08F02134347EA92
:201E8C000302C0F80220D0F801300E1266F30303C0F80130026801F0E70722F0E70247EA81
:201EAC00020102E04FF00041204601602A4E06F108000068C0F3C0070FB94020A0624FF424
:201ECC000070206404F030FE40F0300084F8C800C8F3815038B3401E03D0401E1ED0022125
:201EEC001DE0012004F0B4FA07460420394602F08BFC042004F0ACFA8742FAD1366826F0A7
:201F0C007F4003F089FC15480068036807214FF06022300E98474FF480602060032104205D
:201F2C0002F072FC06E00420012102F06DFC0C4803F072FC284600680B4947F6180700F083
:201F4C003F0084F8CB0F094E0F803068BDE8F08140A00C400A600840A83F0050B401001072
:201F6C00BD3786006C13005070B00C402C2009402DE9F0430646880FADF1140D7FD302F0DC
:201F8C0003F9434D4FF000081C35C5F800803D4845F81C0C012001F0D4FB3B4804F06AFE2A
:201FAC003C48434640F60A0200F13801438790F84440C0F83C8090F845700A8004F0F004A3
:201FCC0080F8444007F0F00444F00104B76880F8454081467B803C1D00E03C1D276817B10E
:201FEC0038888242F9D12160607A00F0F000607209F1240004F044FF80680088D21F824200
:20200C001DD0521C82421AD006F120000788B7B196F82C2096F82D70C6F8248002F0F00252
:20202C0086F82C2007F0F00242F0010286F82D20C9F83C00487B738400F0F0004873B06877
:20204C00694604F023F9684604F066FDB06801F01CFE28680028FCD0C5F80080012004F0B7
:20206C00F7F9012808D0607A00F0F00040F001006072064804F0FEFDB06845F81C0C05B037
:20208C00BDE8F08301010E04ED050000B143000000100440880800202DE9F04F0C464549E9
:2020AC00CA7AADF12C0D84460592487B09900D7900958A7A488B4B8A0E7B91F805A091F835
:2020CC0002800492B1F846E008904A7A088B0392CD7807900A7AC88A02920F6A0690CA79F1
:2020EC00888A01928A79E146A9F54079B9F11D0F10D8DFE809F05B5553514F4D4B49464323
:20210C00413F3C3A380F34312E2B2923201E1C0F19181716BCF1280F49DA604602F0B8FE50
:20212C0021E0099EB246D046CDF814801DE00898079007980690DDF818E005E03831086890
:20214C0020608888A08032E070460AE0B1F8440009E0B1F8420004E0B1F8400001E091F819
:20216C003E00034612E0208021E0059804900498039001E03231E2E7039802900298009075
:20218C0006E0019A87310DE068310BE01846EAE7009D0BE02C31D2E7276008E0583100E0E4
:2021AC0048311022204600F04DFF00E025700BB0BDE8F08F6C0500202DE9F041444C94F87E
:2021CC00E700ADF1280D00286FD1394F387B01250021242284F8E7507E6884F8E6000823E3
:2021EC00C4F80C6101A804F0EBFE002604F10C00069601ABADF814602E490796324604F01C
:20220C00DBFE2D4904F1300001AB324604F0D4FE2A4904F1540001AB324604F0CDFEB86895
:20222C00014628468847DFF89C8025487B7B0078D8F80410C1F381571BB1032F03D184F882
:20224C00E150032F16D0022F14D0012F26D103201D4C009031464FF040521C23204602F0F2
:20226C00B5FB009531464FF400720923204602F0ADFB13E0022003F0FFFA032F0CBF4FF474
:20228C007A7142F21071114800685434B1FBF0F1204604F0C9FE204604F0C2FED8F80000B1
:2022AC00C00802D2304603F0E7FA0AB0BDE8F081047300008F490000B53200005936000097
:2022CC001D1D0020B03F005000A00C40507300001C0E0020F8B504F04DFA404E3E4F044613
:2022EC00A00823D3B96A09B33D4600200B698A69A86204EA0300104340F0020006F10802CA
:20230C0088610B6910689843106001F1100090E80C0030681A1C9043306005F1300003F0C1
:20232C0001F9022105F1C80004F0F0FAB86AA10815D200F110020CCA002122400B40002B54
:20234C0008BF002A0BD0016985690C40F8622C434FF48041846107F1C80004F0D7FAB86AA8
:20236C00002837D107F12404204604F089FD051C30D0F868E968884226D1A86802F06AFA28
:20238C0017490860E0B906F1080128690A6810430860326805F1100393E80300081C10437A
:2023AC00306000233361A86846F80C0C06F1100000680028FAD0204604F03CFABD62F8BD9F
:2023CC00086801F00FFFF8BD07F1C8004FF4805104F09CFAF8BDC046880800200C100440A4
:2023EC00141D00202DE9F047ADF1180D00F08CFD3A4D4FF0030908274FF6FF78002605F11E
:20240C003E0A2C4604F016F820BB009601A80DF106016A4603F0EDFAE0B9BDF804001028C1
:20242C0014D160789DF8061088420FD100980188884509D14088C00B08D3042005F120020C
:20244C00014603F0D7F801E002F02AFA009808B104F054F9208A41082DD320F001006379FE
:20246C002179208253EA010225D073B9207A637A8DF8070005F132018DF808300A680DF15A
:20248C0009031A608988998001E08DF80790A07A8DF80F00E37A8DF810300DF1070004F0BA
:2024AC00EFFB38B1636AA77023B11A6812B1196838468847208A810807D320F002002082B1
:2024CC005146304601F062FA208AC1089AD320F00400208204F02CF894E7C0466C050020D6
:2024EC002DE9F0430646ADF11C0D04F061FD03F07BF94FF000090546CDF8009004F02CFCB7
:20250C0030F0010002D00098A84202D16FF0040059E070684C4658B1B0F1FF3F05D001A9FA
:20252C0003F04AF930B107464CE04FF0FF3000E02046019004F038FD0199012701EB0008DB
:20254C0000E001936868019904F02AFD00282ED003A802F031FFD8B99DF8100002A902F0B0
:20256C0011FF88B9B368BDF808009DF81210059A984748B19DF81270B773BDF80800B081C9
:20258C00059B33614F4612E00599684603F0CEFA0198641CB0F1FF3FD4D00028D2D004F013
:2025AC0003FDB8EB000302D001989842C9D2009905F1080003F0FCFB24B1686804F0ECFC87
:2025CC00641EFAD1384607B0BDE8F083F0B5ADF1340DFFF7F1FD304908682822082340F05F
:2025EC000200086001A8002104F0F6FC2B4E2C490524002301AA079406F1C80004F0E8FC9E
:20260C0000213022082301A804F0EEFC0025FF271921244AADF81C5001AB099706F14C00F6
:20262C00009504F0DDFC2822082301A8294604F0D3FC1D4901AA2B4606F1FC00079404F0D8
:20264C00C7FC3022082301A8294604F0CDFC01241A21164AADF81C4001AB099706F16800ED
:20266C00009504F0BDFC12492A4606F1A400134604F0A2FC0F4804F0FDFAB47186F8A350E3
:20268C007571F57135727572B5724FF6FF7075610DB0A6F8A000F0BD0020094088080020E2
:2026AC00E9680000E9600000E12A0000054400004D5F0000192A00007CB50446084601F077
:2026CC00E5FA344E02461821304603F087FA03F0DBFE40F2FF32002380B22C21009030464B
:2026EC0002F074F904F028FA1C210246304603F075FA03F0BBFE02461421304603F06EFA02
:20270C0004F05CF802461021304603F067FA204601F0E4F902460C21304603F05FFA204651
:20272C0004F034F81C4D400040F020002870204604F038F840F010002870204603F0B6FD6E
:20274C0002462821304603F049FA204604F042F8400040F06000E870204604F047F8C0001B
:20276C0040F0800005F8080C204604F04BF8800040F47C40A5F89300204603F045FA02466F
:20278C000821304603F02AFA4FF48000A5F2091108607CBD00A00C4049A10C402DE9F843EF
:2027AC000446FDF79FFC81462D48021992F8ED10491ECFB2002F82F8ED704BD12B4D05EBE4
:2027CC0084052E78698836F07F0788461AD1F10911D24FF08054D4F8B8018069014640463D
:2027EC00884704F5DC742068406B0146404688470228F8D121E000EB8800D0F80011002086
:20280C0088471AE04FF08054D4F8B801006A014640468847D4F8B801806A0146404688473A
:20282C00D4F8B801006B01464046884701210D4A0D48116001688908FCD306F03F003F285C
:20284C0001D0FFF7ABFF687800F03F003F2801D0FFF7A4FF4846FDF749FCBDE8F883C0462E
:20286C001C0E00202820086028200840087100002DE9F0410646FDF735FC2D4D8046A9198F
:20288C0091F8ED00421C002881F8ED204AD1294C04EB8604277807F03F003F2801D0FFF79E
:2028AC00E7FF607800F03F003F2801D0FFF7E0FF668837F07F001AD1F80911D24FF080549C
:2028CC00D4F8B801406901463046884704F5DC742068406B0146304688470128F8D121E037
:2028EC0005EB8605D5F80011012088471AE04FF08054D4F8B801C069014630468847D4F870
:20290C00B801406A014630468847D4F8B801C06A0146304688470121074A084811600168E4
:20292C008908FCD34046FDF7E1FBBDE8F081C0461C0E0020087100002820086028200840B6
:20294C00294A2DE9F04180460126284816600768002FFCD0294C2A4FC020443C206007F1AE
:20296C00080001682348890804D20168090C41F0F00100E072211E4D85F854120021116312
:20298C008768384600F0DEFE40463946FFF794FE1C48B038816D40F20F226FF31F418A423A
:2029AC0012D901680068C1F30363C0F3034003B15B1E072805D006280EBF0720801C00F060
:2029CC000F0043EA001028703846FFF739FA0E4814380068C1680220884740202060064F07
:2029EC003E60BDE8F081C046101009409402224302600840AC3F00509404604244600C409E
:202A0C00A83F00506C130050B4010010042998B54DD1274C04F1240004F032FA40B994F816
:202A2C00A300400838BFE06804D3D4F8880000E0C068E06041681F4A0978116041681268C6
:202A4C000978914206D0876927B120A20CCA6FF0FF01B847022002F00FFF1120FFF708FF32
:202A6C000120E071E068011D007C10B16079012804D00E20FFF7FCFEE168091D08680E490B
:202A8C00083007680FB947681FB10020C8610B4F0F600B4A40F2FF7000271060094C8F6158
:202AAC0009484C6104F0E6F8192004F071FA98BD88080020D02108400010044051000706B2
:202ACC0000000460020000407D1F00000000000000000002F8B5FDF705FB2A4C0746103CF6
:202AEC00D4F89C0010F4602F2BD0D4F89C00400CC5B2680807D2A80803D2E80828BF0225DD
:202B0C0002E0012500E000256E1D70B201F09EFCD4F89C3005F111010120884023EA0001CD
:202B2C003846C4F89C10FDF7E1FA04EB8500D0F88C704FB1D4F8880013A20CCA3146B84747
:202B4C0002E03846FDF7D2FAD4F89C0020B104F1FC00002103F0DAFE94F8A30080080FD39A
:202B6C00D4F8987037B1D4F8880009A20CCA6FF00101B84794F8A30000F0FD0084F8A3001D
:202B8C00F8BDC04698080020000000000000000800000000000000802DE9F0412D4C05461B
:202BAC00A41C20781F4690460E46ADF1380D012803D0FFF70BFD012020705EB1B8F1000FCD
:202BCC006E6007D0C5F80880FDF78CFA617819B1FDF78CFA002038E0491CC9B26170FDF78B
:202BEC0085FA01241FB9684603F0FEFE6F46386828607868E860387A2874F8686861386993
:202C0C0000B1A8610021782205F1200000F060FD05A800212422082304F0EEF98DF82C40C5
:202C2C0005F13800002105AA04F0E2F905A800212422082304F0C4F905490B9505F1700077
:202C4C00002205AB04F0B8F928460EB0BDE8F081116E000088080020F8B504F04DF804F0A6
:202C6C0057F8044604F00C000C2845D0E0081ED203F00CF8234E376805460120014603F0E1
:202C8C0064FB31686943884211D21F4C8220B0FBF7F0291A204604F0C7F9204604F0C0F9C8
:202CAC000120FEF7B9F8204603F030FB25E0200922D21648610939BF016821F001010168F6
:202CCC0041F0010102460160D2F898004FF0805440F00300C2F89800D4F8B801806901465D
:202CEC0020208847D4F8B801094C806B2168804701202060206800E030BF04F003F800F0CD
:202D0C00F9FFF8BD50730000280E00208C2108402C2009402DE9F0410E46294990461C4612
:202D2C0006AF8C4672680878BB8851783F881278002502EB012242F62321521A29D0521EC3
:202D4C00052A18D9921F0CD0263A34D1072F30D8C7F10700984298BF83B2674407F1080146
:202D6C0021E0B84225DBC01B9842D8BF83B22380DCF804000BE0F06803F05EFE80B2B84292
:202D8C0017DBC01B9842D8BF83B22380F06839180AE0082F0DD8C7F10800984298BF83B23C
:202DAC0007EB0C010F31238040461A4600F04AF903E0072501E025800A252846BDE8F081C4
:202DCC00C40A0020264838B550380468B4F1FF3F08BF002403F0FEFD2248174900251038B7
:202DEC000560012008601549086001F0FBFB1448006820B1134800682046FFF7A1FD124880
:202E0C0012490560124C0A686FF35B4244EA0200086010490868C0F30130012806D10A6860
:202E2C000D48104040F400320A6008600B4908680028FCD138BDC0465C600C40082204437C
:202E4C0080012843000120438C210840482003400000390104000940FFFFFCFC0C00684243
:202E6C006C13005094046042F0B520480127F84201D001F03BFD204D204F214EBD4206D2B2
:202E8C0003CD0478A4003459401CA047F6E71D48002800D08047164D164FBD4202D210CDED
:202EAC00A047FAE7F0BD03251BE0416808300A1C2A400BD11A1C2A40AB4305D0046804301E
:202ECC000C600431043BF9D1131C05D0047801300C700131013BF9D1021C2A4001D0A84393
:202EEC0004300368002BE0D17047C046FFFFFFFF0000000000000000887A0000E87A00002E
:202F0C00307A000059C501102DE9F84302F078FF244C0025A5704FF6FF70A08202F08EF919
:202F2C001F4E01232A462070314604F1A80001F071FD02232A4604F1CC00314601F06AFD5C
:202F4C0004232A4604F1F000314601F063FD042704F14808102240462946E77000F0B8FB90
:202F6C0004F1580910224846294600F0B1FB04F1200635602572072065721021A072424614
:202F8C00E572022002F01CFB032010214A4602F017FB38463246014602F012FBBDE8F8835F
:202FAC00A16800006C050020FEB5FEF74BF9244C4FF6FF7500266C3C03F02EFA002833D141
:202FCC00009601A80DF106016A4602F0FBFC30BBBDF804000127102811D120789DF80610DF
:202FEC0088420CD1009801888D4205D14088000905D302F0CFF802E003F0F6FD0746009849
:20300C0068B167B103F056FB09E0E06803F0EFFA071C04D003F0DEFA384603F033FBE06879
:20302C0003F0B2FF0028F0D06088C108C4D320F00400608003F07EFE03F008FCBCE7C046AD
:20304C0074020020002A4AD05FEA000C8B071CD1830722D1102A08D370B4103A78C978C03D
:20306C00103AFBD270BC103238D0042A2CD3082A05D30C2A24BF08C908C008C908C008C964
:20308C0008C092072AD0920F22E00B780370491C401C521E22D08B07F7D1C30714D183077A
:2030AC00D8D0121F12D308C903801B0C4380001D121FF8D20AE008C903701B0A43701B0AC5
:2030CC0083701B0AC370001D121FF4D2121D05D00B780370491C401C521EF9D16046704733
:2030EC0000B5401EADF1240D1CD0C01E13D0401E14D0401E3BD103F01DFE02F083F8401EB0
:20310C00694680B202F042FA88B305A940F21530FEF7C2FF2BE0174803F0B4FE142002F049
:20312C00D3FE24E04FF4417007A9FEF7B5FF00218DF804109DF81D308DF803109DF81E205A
:20314C008DF801309DF81C008DF802209DF81F108DF800009DF821308DF805109DF82020B7
:20316C008DF8073068468DF8062003F095FC09B000BDC046740200202DE9FC41844608AFC4
:20318C000878DFF888803F88FF24022830D14E687578307842F6021600EB0520801B21D078
:2031AC004DF2EF65401B04D0801E18BFB0F1030016D19FB9012B0FD11078CA681070C96872
:2031CC0000254046884205D0001D88420CBF0624022410E02C460EE00D250AE00B2508E013
:2031EC000A2506E00097604601F0A6FB054600E00125FF2C07D040460830006818B1016834
:20320C0009B1204688472846BDE8FC81F40C00202DE9F8432020EFF3118780F31188214C7F
:20322C00A068012103F0ACFE4FF001094FF0000865692168A4F81C906A1A2168A4F81E8045
:20324C00461B401A904227D387F3118840464519361A4846294603F08FFEB042F7D9202114
:20326C00EFF3118781F31188E18B012903D14046294603F081FEB0F1FF3F06D0A169801B90
:20328C00814238BF081C411901E0A069291803F06FFEA4F820902560A4F81C8087F3118843
:2032AC00BDE8F883780100202DE99843FCF71AFF1F4CDFF87880814604F1E000007850B9F5
:2032CC004446A0680146022088470746102001F00DFC2FB320E000F0FBFE002820460FD168
:2032EC00144909683222B2FBF1F101B9012100F13004204603F098FE204603F091FE0FE04A
:20330C0044460022A16880F8E020022088470746102001F0EBFB1FB1A0680146032088471E
:20332C004846FCF7E3FEBDE89883C046047300001C0E00205073000070B51F4CA5680646EC
:20334C0003F0F4F94FF47A71401B4843050C02F06BFD2169401A48BF404240F6B831AD19B0
:20336C00A94211D306280FDAA268E1688A420BD8206848B1891A114A51438A0C02EB114171
:20338C00884288BF011C08E00D49486840080ED208687D2100F0FF004143C82905D3B1F5ED
:2033AC007A6F88BF4FF47A6103E0C82101E04FF4FA61084670BDC046F81C002040420F0022
:2033CC00AC3F0050F8B5001D84B214F0030002D0241A241DA4B203F0E3F801461948102C46
:2033EC0047680160C8BF8768388800221646C30BDD0319D126B984420ADD3A46012617E03B
:20340C001388C3189BB29C42138011DC174618469FB1001B80B20428B4BF3C88385344F401
:20342C0000443C803F1D08E080F40040002680B2C71938880028DAD10027084603F089FAD2
:20344C003846F8BD0C100020B0B50446A768ADF1280D27BB0C20FFF7B5FF071C16D06846F1
:20346C0000212422082303F0ABFD002306976A466168ADF810301448059303F075FD386004
:20348C0038B903F05BFA384602F024FB6FF0030018E0E06878602069B860A7600AE003F059
:2034AC007FF80546386802F031FF2069B860284603F04FFA3868616803F0B6FD386803F08F
:2034CC00AFFD00200AB0B0BDC96C0000B0B514460F46FCF707FE85B219480068007808B973
:2034EC0003F042F887B1384602F0FBFB40B114B14FF0FF3020700820FFF750F9002419E0BD
:20350C0038687968BA6803E04FF480700122014601F0D4FF0B49012008600B4908684008CF
:20352C00FCD30A4800684168022088470CB10021217004462846FCF7D9FD2046B0BDC04693
:20354C0014730000A802504208800240CC010010F8B50E46044603F05BFD0546304602F0AC
:20356C0069FB071C03D1284603F04EFD26E0F87F10F0070F1BD113487968884202D0796800
:20358C002166786010A090E8060004F15807284687E8060003F038FD04F138004FF0FF3197
:2035AC0003F0FEFC04F1680696E80300F8BD284603F02AFDF87F10F0070FFBD10220002155
:2035CC00F8BDC046E146000002000000000000702DE9F043ADF13C0D03F01EFD1A4C184D82
:2035EC00002680461C3C684600213C22082303F0B7FC54F8042F6868AF6806902B6808974F
:20360C00694605920F480493002203F0A5FC071C10D002F0C5FF8146384601F0A9F848B12B
:20362C00484603F096F92D1D761CDCD0404603F0E7FC01E001F02AFB0FB0BDE8F083C046B6
:20364C003C700000156B0000181000201CB5042002F0FEFE022818D0032816D0164800681E
:20366C00C0F38150032814BF41F288324FF47A721248144C016854342046B2FBF1F103F00D
:20368C00D3FC204603F0CCFC1CBD03200C4C009000214FF040521C23204601F097F9012011
:2036AC0000214FF4007209230090204601F08EF9022002F0C9F81CBDB43F005050730000DA
:2036CC0000A00C401C0E0020002213460A46194671B510F0030F0BD0002A82BF00F8011BEC
:2036EC00B2F1010210F0030FF6D1002A08BF71BD11F0FF0141EA0121042A18D341EA01414C
:20370C00082A0FD30E46102A08D30C460D46B2F10F0312F00F0272C0103BFCD812F0080F49
:20372C0018BF42C012F0040F18BF40F8041B12F0020F18BF20F8021B12F0010F18BF0170E8
:20374C0071BD70470246184808B50068C0F3046003F03CFA00EB2270401C162805DA10F174
:20376C000A0FB8BF6FF0090000E015200F49104B00F01F0040F4F85008801868800803D28D
:20378C000C490020086001E042F040620A49D00E930E80F0010000F00100086083F001007B
:2037AC0000F00100886008BDB81200506E6208400000094094042A430000204338B5054644
:2037CC0001201A4C68712879B0B902F0E9FE2178002904BF6FF00704051C15D0491EC9B2C3
:2037EC00217039B903F0B5F8606802F0BDF80020687118E0054613E002F0D2FE0546207857
:20380C00FF2805D16FF00604284603F0A2F80BE0401CC0B20128207002D1606802F0BBF889
:20382C00284603F096F80024204638BD7C12002070B50646B079F5680628A5F108052CDA92
:20384C003079062829DA02F0ABFE154CB27991000C3401EBC20161184968E1B103F079F8BB
:20386C0030792870B0796870307AA870B179880000EBC1002018F1684068083002F056F928
:20388C00B179880000EBC10024186068406803F083FB002070BD03F05CF86FF0020070BD7F
:2038AC003C10002038B519491A4C00204822C1F8F30F94F8E200C1F8FF2F20B3012817D05E
:2038CC00022807D003281ED151F8310C00F024F80B2016E051F8315C2846FDF7A7FE40F2FF
:2038EC00FF50A84202D8801CA842F1D2082008E051F8310C00F08EFB054800780028E7D0AD
:20390C00052084F8E400FEF721F938BD39400C40127300001C0E002038B51A4CA0F5C06076
:20392C00D4F8B810C4F8D4000029B8BF49420028B8BF4042814220DAB4F8BC00124D302136
:20394C004FF47F4208230090284601F03FF8B4F8C00004214FF4F80212230090284601F014
:20396C0035F8B4F8D00020214FF440620A230090284601F02BF8012000E0002084F8D800B8
:20398C0038BDC0461C0E002000A00C402DE9FF410E460546194C7188E08A81420CDCB18849
:2039AC00814209DBF088218B884205D13089618B884208BF18271DD0052001F069FA7788B6
:2039CC00B388ADF80270F288ADF804303189ADF806208046ADF80810A08AADF800006846B1
:2039EC0003F05AF9071C05D1A57304F1F000414601F0ECFB38460090BDE8FF816C0500205C
:203A0C001A4898B5D0F8781203680F0F03F0FF03802B28BF002300F0B5FF4FF0FF3478B127
:203A2C00401E07D0401E012802D9801E19D01AE0BFB118E0381C12D0801E14D1143311E009
:203A4C003846401E0BD0801E07D0001F03D0401E09D1163306E0152405E0142403E00A246E
:203A6C0001E00A335CB2204698BDC046A0100050F8B5174A174B184C121D22F003019C4652
:203A8C0021605E1A2068256860606768A660002001E025F8020BAB42FBD84FF6FC75B31013
:203AAC002A4001EB830323F8040CACEB0202E82315403B80EC3DA1F8E850E83144F8081CCA
:203ACC00FFF780FC44F8040C606844F8080CF8BD1E1D0020483F00201810002038B50446CE
:203AEC001848174DC03002686B68C2F30351C2F303405B0813D22B681D0511EB257103D462
:203B0C001029A8BF0F2100E000211B0410EB237303D4102BA8BF0F2300E00023184640EAE2
:203B2C00011002F47F4102F0FF03222C41EA004143EA010024BF02F08042104338BDC046F1
:203B4C00AC3F0050B812005030B5401E4FF00004ADF12C0D0AD0401E04D0401E20D1FDF758
:203B6C00F5FF1DE000F0C8FB044619E001A821462422082303F024FA06940D4DADF81440D3
:203B8C0009490794012201AB05F1780003F014FA064A23462C2105F19C00009303F020FAB6
:203BAC0020460BB030BDC046613F0000B13800001C0E002038B50546880F26D301F0E0F980
:203BCC00124803F057F81548801C0078012803D005F1380003F0E0F90D48002404600220D7
:203BEC0001F032FE1120FEF7D9FD287C10B90E20FEF7D4FD0748084A04721178447221B113
:203C0C001470C830042102F081FE38BD192A000000000460880800201C1D00208808002031
:203C2C002DE9F041054615F8017B90460E461CE0B8F1000F05F101050BD0FF2C09D802207A
:203C4C0015F8011B401E41EA0424F9D101E0042C02D315F8011B00E0394630462246FFF772
:203C6C0037FDA61901E006F8010B15F8010B8742F9D115F8014B002CE9D115F8010B2C78B2
:203C8C0000022418D4D1BDE8F08170470146184880B5983000688A0CC0F38367C0F38F20C7
:203CAC0022D241F3072100290BD54A420021400805D17F0806BF0127381C4FF6FF70521EE8
:203CCC00F5D1002910DD4FF6FF72400040F00100824207D2780040F001070F2F92BF0120D8
:203CEC000F27101C491EF0D140EA074080BDC046B8120050164880B507683FB315498B681B
:203D0C0003EA5300C00E21D2134A106880081DD2486880081AD21068096810F0050F4FEAF0
:203D2C00114101F0F00101F5E0710AD1B9420DD2190F38BF40F00100D90E38BF40F00400E5
:203D4C0003E0B94202D920F00500106080BDC04628500940AC3F005000000940184B48B333
:203D6C00401E22D0401E1BD0401E11D0401E06D0801E24D1012922D11846001D1DE00529D5
:203D8C001DD11168184610300160137903717047012914D111781846C170C06800F046B8BD
:203DAC0001290CD11846801C07E0012907D11846401C02E0012902D1184611780170704765
:203DCC00F40C0020F0B50E4615460746ADF11C0D03A902F0EBF9024605921AB30020009071
:203DEC00BDF80C00FF240DF11203294601903846029400F025FA041C0FD16889ADF81000F7
:203E0C00700804D3384604A902F018FC03E0384604A902F0D2FF041C05D004A81B2102F076
:203E2C00DFFA00E01524204607B0F0BD2DE9F84F061C28D01548017800244FF6FF7A8146C4
:203E4C001FE0A00036F800B03518DA4515D0AF789FB102F0D7F85FEA00080ED0780804D3CA
:203E6C00584601214246FFF7ADFFA878800804D3288802214246FFF7A5FF99F80010641CB7
:203E8C00E4B2A142DDDCBDE8F88FC0466C0500202DE9F8438146EFF31188202080F3118842
:203EAC000125114E114CF561114F6560F86A016A14208847D9F81000810C14BF000C042058
:203ECC00A06138680268232100209047C6F88052206820F4C02040F480302060356088F310
:203EEC001188BDE8F883C046000024430020094084010010D0B5044603F05AF800F038FC5A
:203F0C00071C08BF6FF002041FD002F049FB0146A2880F480023243030F80C6F5EB90280A6
:203F2C004760A26882602373786820610024084602F00FFD09E0964208BF6FF00204F6D0C8
:203F4C005B1C062BE8D300F0A1FE2046D0BDC046181000201648144A144908B5E4300078C0
:203F6C00801E0A2807D8DFE800F01814100614100614100609C003F027F811E0106880086D
:203F8C00FCD250688008FCD20AE008688008FCD306E008688008FCD202E010688008FCD32B
:203FAC00FDF7D4FD08BDC04634600C4038600C401C0E002010B5FCF795F8114C611C0978B7
:203FCC0029B10E490C68FCF791F8204610BDFCF78DF802F0F5FC0DA20CCA02F073FCA26C32
:203FEC00002314001B1807A044EB010490E80600C91842EB04021046001C10BD0430044027
:20400C0088080020000000127A00000000093D0000000000134910B50A684BF2F5214843A1
:20402C00040AC2F38140012806D101F0FDFE00F089FF604304EB90540C4901F1E500007872
:20404C0030B90948006820F07F402418640802E0002081F8E50006480460210C4160012337
:20406C00836010BDB43F0050102009401C0E00203C600C40B0B5044602F06EFE30F0010068
:20408C0008BF6FF004041ED002F092FF054602F087FA01460D480622303030F80C7F6FB1C0
:2040AC00A388BB4208D1406800680022854208BF0122A260002403E0521EEED14FF0FF3466
:2040CC00084602F046FC2046B0BDC0460C10002008B5012002F0BCF901281DD00F483421F6
:2040EC000122002300F074FE002808BF002014D00B48006801F0D4FE02F018FB0A4A936847
:20410C001168D060C01A074BA1EB91014343180C884228BF011C1160012008BD00A00C40E5
:20412C008000001040420F00F81C0020B0B5144D28680004070C21D001F076FE114991F977
:20414C000720824205DD10F1800FB8BF6FF07F00C8718C88BC4210D80A68D5F8D40F801AB2
:20416C00801C1F2888BF1F203F1B4008C7404FF6FF70E719B84238BF071C8F80B0BDC046D7
:20418C00341009400C1D002098B5134C0C342068011D4068406810B180472168091D0868B4
:2041AC000830016809B94768A7B10C4A1C321768002FFCD00023136029B10846804720685E
:2041CC00001D00680830406800B180470448503802F04CF898BDC04688080020001004408D
:2041EC0051000706F8B50746FBF77CFF124C06462079E0B1401EC0B22071C0B904F1C80083
:20420C00082102F083FB97B1E068703002F07EF8E0680A4DC0683F1A286804F1A405B7FB61
:20422C00F0F1284602F000FF284602F0F9FE3046FBF75CFFF8BDC0468808002050730000EA
:20424C00B0B504AF3F88002F18BF0B2025D1087802281FD14D686C782F7800204FF6F175A7
:20426C0007EB04277F1B012F0ED9FF1E0CD07F1E1CBF011C0A200FD105241C80C9680B6863
:20428C00136009791171B0BD01241C80C96809781170B0BD002101201980B0BD15490968B6
:2042AC0021280ADC212819D00C380FD00D380FD0001F0FD0C01E0FD01AE0253810D0001F39
:2042CC0010D0401E10D0401E10D011E0086870474868704788687047C86870470869704741
:2042EC004869704788697047C8697047086A704700207047F001002038B5134D95F8E100EE
:20430C00002410B91148007860B1FBF7EBFE95F8E310002906BF012185F8E3100124FBF7D0
:20432C00E5FE0CB1002038BD022001F0A5FA0E20FEF79EFA01F0C0FE01280EBF0120002069
:20434C0085F8E20038BDC0461C0E002012730000012838B51ED1012002F07AF801281BD08A
:20436C0002F0FCF90D4D0E480122322305F1E00100680A70B3FBF0F404B9144630352846ED
:20438C0001F0C4FF2846214602F04EFE284602F047FE01E001F078F8002038BD1C0E002004
:2043AC0050730000084610B500F0005100F00400084317D0012002F04BF80E4C01280CD0FF
:2043CC00094909686C3432222046B2FBF1F102F02BFE204602F024FE10BD044802F04AFC3F
:2043EC000348046010BDC04650730000ED05000000100440C008002038B51248104C016832
:20440C00114D0C40E1430160A10908D34068800905D328464FF40051C83002F077FA14F46E
:20442C00602F0BD0284600F19C010A6804F46024FC3014430C60002102F068FA38BDC046BD
:20444C0020000E00081004408808002098B50446FBF748FE8446104890F8A310C90803D343
:20446C0090F8A210A14213D0B0F8A0300B4F012202FA04F11943A0F8A010391D0B6804F1E8
:20448C000C07BA4093430B600F680FB9002101706046FBF72BFE98BD8808002008100440CF
:2044AC00DCB5044602F084FD01F09EF9064602F053FC30F0010014BF002E6FF0040017D021
:2044CC00606858B1B0F1FF3F05D0694601F074F930B107460BE04FF0FF3000E00020009027
:2044EC007068009902F05CFD002700B901273846DCBDFEE7F8B5124C6678E578182001F081
:20450C0065FE071C19D00421002202F09FFA304601F08AFD38727D720020B87204F148063A
:20452C00FE6004F158033B6104F120027A6101F05DFE024A394600F0B9FDF8BD356E00001E
:20454C006C0500202DE9F04104461148401C90F8008016460D46102001F038FE071C12D065
:20456C000421072202F072FA404601F05DFD38727C72BD72FE6001F039FE044A394600F0A8
:20458C0095FDBDE8F0810420BDE8F0815F6E00006C050020F8B5044602F00AFD00F0E8F80F
:2045AC00071C19D001F0FCFF84460D480021243030F80C6F6EB94FF6F8720280476000259C
:2045CC00856021717868A060604602F0C2F92846F8BD491C0629EBD300F058FBF8BDC046B2
:2045EC00181000200F4908680028FCD1104A131D0D49186820F0030001430C480068C0086F
:20460C000CD2106810F0030F0AD041F003001860106800F003000328FAD101E041F001012B
:20462C00196070470C00684204000020B03F005000400340F8B516460C46FBF753FD0246BD
:20464C000F484178832554B1641E02D0641E10D00DE08179012904D0B0F8A01005E0876AC8
:20466C000FB9802506E0806A818B318002E0032500E031701046FBF739FD2846F8BDC04602
:20468C0088080020124AF8B592F804C0D5789678577814780023B8B1401E14D0401E11D044
:2046AC00401E0ED0401E05D0801E18BF02230CD1654606E01046103002680A60007908711B
:2046CC0003E02E4637463C460C701846F8BDC046F40C00202DE998430446276E994690463E
:2046EC0007B1B8470020022100EA090001EA0801002808BF00290BD104F1580090E806000E
:20470C0008EA010109EA0200002808BF002907D004F1680080E8000304F1380002F03CFC96
:20472C00BDE89883F8B50446A1686068ADF104060025086002F060FB46F8040F002808BF23
:20474C006FF003000FD06D1CF4D0074D6E46002756F8040B55F8041BA368044A01F08CFBF6
:20476C007F1CF5D00020F8BD4C730000955700002DE9F843804601F013FF0F4C032500268A
:20478C00814654F80C7F5FB93046C4F800800146A6600A4602F0DCFB606018B900F076FA4E
:2047AC00474501D1264601E06D1EEAD1484602F0D0F83046BDE8F88318100020B0B5054626
:2047CC0002F0F6FB044602F0C7FA30F0010008BF6FF0040414D001F0E3FE0A4A002132F849
:2047EC000C7F4FB153681B689C4204BF2971002404D0491C0629F2D36FF0040402F0A9F85E
:20480C002046B0BD3C1000207CB5114D04460E46600807D3B0B20021009001220B462846E9
:20482C0000F0D4F8A00807D3B0B20090002102220123284600F0CAF8E00807D3B0B20090FF
:20484C0000210C220223284600F0C0F87CBDC04600A00C4038B50546287B00F00F00022893
:20486C0018D10D4C2078012814D0FFF7A3FBA9686FF070458908A1EB900085420ADDB0F190
:20488C00704FBCBF05490844E168C96801F57A71814200DB002038BD88080020F6FFFF1F67
:2048AC0010B50178A23902D02E391AD010BD4179132918D100890C4C01280AD12046F03891
:2048CC00817B022905D1F03002F0DCFA01F0AAFE10BD052000F0DCFA0146204600F076FC87
:2048EC0010BDFCF705F810BD5C060020F8B506460F4D104F7388002417E0A00000EBC40087
:20490C00321851689068D26852B9AF420BD00A7855F822200346491C08461946904701E05B
:20492C00FEF790FB7388641CA4B2A342E5DCF8BD307A00003C7A0000F8B506AF3F880D46E3
:20494C000646E7B9022B18D15078147804EB002434F001000FD1E9680968304602F0B4F807
:20496C00844208BF00200BD0E96809683046224601F0F6F9F8BD8020F8BD0D20F8BD0B200C
:20498C00F8BD7047104A1068C0F30F314BF69A10884207D111680B20B0EB117F14BF00208B
:2049AC00042070472430884208BF01200BD04BF64130884208BF032005D0213888420CBF06
:2049CC0002204FF0FF30704718130050B0B500EB4100102B04AF00F5007403D3103B00F50B
:2049EC000174120C3D889D4045EA024502F084F9002700B90127064A394610680028FCD04E
:204A0C0025600120106009B102F07CF9B0BDC04600800C40F0B50D4614461F460646ADF173
:204A2C00240D002124220823684602F0C9FA00200590ADF8100008484FF47A71A2B26B4657
:204A4C0000680697B1FBF0F080B229464243304602F0B2FA09B0F0BD507300002DE9F0410F
:204A6C0004461E4690460D46142001F0AFFB071C13D03246032101F0E9FF3C810020387480
:204A8C004046FD6001F0D0FA787401F0AFFB044A394600F00BFBBDE8F0810420BDE8F081D2
:204AAC001566000038B502F04FF8FCF7A7FE4FF08055D5F8D8010C4C036801210A4620465C
:204ACC009847D5F8D801426801212046904701F05BF9FEF77DFD00F03BF900F08DFA02F0FB
:204AEC0033FA002038BDC0460040034070B5104C0646204602F058F90025B0B9204602F083
:204B0C00BBF90446A06806420AD0E068226900210346304698470546012D08BF012005D099
:204B2C00204602F0ABF9041CECD1284670BDC0461C0E00200F4A01461068ADF1080D08B919
:204B4C00002010600846801E12D0801E10D0401E07D001208DF801009DF801000028FBD107
:204B6C0006E001208DF800009DF800000028FBD102B070470C0200200E48B0B54578848AF7
:204B8C000E2001F023FB071C11D004210A2201F05DFF284601F048FA38727C811320387304
:204BAC0001F024FB044A394600F080FAB0BD0420B0BDC0466C050020596E00002DE9F041FF
:204BCC0002F0D6F80D4D2B688046A3B105F194060024012707FA04F018EA000F07D056F8FB
:204BEC00240020B1026812B1214690472B68641CE4B29C42EED3BDE8F081C046201B00208A
:204C0C000C4885460C4885446F4607208743BD460A486F4607600A48002803D07946491DC3
:204C2C008E460047FEF720F901F040FE02F088F9FEE7C046483F0020000400009412002041
:204C4C00896D00002DE9F04104460E48057890460E46102001F0BAFA071C10D0324604214F
:204C6C0001F0F4FE284601F0DFF93872FC6001F0BDFA3946424600F019FABDE8F08104201C
:204C8C00BDE8F0816D05002000BF704708B5FFF7FBFFFEE738B50546094800688047094C4B
:204CAC00201D006810B1014628468847206800B18047054800688047FFF7E8FF38BDC046AA
:204CCC00841200208C12002088120020D0B504463C20FEF777FB071C14D000213C22082357
:204CEC0002F03EF9207AB86160893862E068386160683946002202F02FF90646384600F02B
:204D0C00E9FE16B96FF00300D0BD0020D0BDFEE70E480EB5F0388178062916D1B0F8401008
:204D2C00ADF80210B0F84230ADF80430B0F84420ADF80620B0F84610ADF80810CC3002F03D
:204D4C00A1F801206946FEF721FE0EBD5C06002000B500213C220823ADF13C0D684602F097
:204D6C00FFF8094800F5B27107914FF4DC71089103210691054900236A4600F58A7002F049
:204D8C00DBF80FB000BDC0466C050020F1230000F8B506460C48006844880579102001F0ED
:204DAC0015FA071C0DD00221152201F055FF3C81BD72FE6001F01AFA044A394600F076F9BE
:204DCC00F8BD0420F8BDC046180200202D6C0000F8B51E4614460D18102E02D3103EAD1CA6
:204DEC00240C01F089FF002700B9012707483B460768002FFCD02D88012101600BB101F0D7
:204E0C0081FF2C403441A0B2F8BDC04600800C400E4938B5CA68824210D1487801280DD16A
:204E2C00FBF760F90546084801F020FA04462846FBF75CF904F0FF00012802D06FF07F00AA
:204E4C0038BD4FFAA4F038BD01000304880800202DE9F0410446984616460D460E2001F08A
:204E6C00B5F9071C10D0812038700123FB70BC803D817E81A7F80C8001F0B8F9069A3946B8
:204E8C0000F014F9BDE8F0810420BDE8F08170473EB505460020ADF804000A2001F096F951
:204EAC00041C0DD00421312201F0D0FD258101F09DF901A90223044A0091214600F014F974
:204ECC00BDF804003EBDC046416E0000F8B5044616460D46142001F079F9071C0FD00421F9
:204EEC00022201F0B9FEBC60BD811020B8733E6101F07CF9034A394600F0D8F8F8BD0420BB
:204F0C00F8BDC046116C000070B50446606810F07F4F18BF6FF0020011D101F041FB084DAC
:204F2C000646287828B1686800F01EFD606800F032FD60686860304601F00BFD002070BD92
:204F4C007C1200200D4938B5D1F8EC3209681B3800FB00F409060A1643F3072100FB01F53C
:204F6C0019066043091661434243891201EBE50101EBA24000EB234038BDC046A410005093
:204F8C000C49086820F0020040F4007008600A48032140F8041C41F230018160012101608C
:204FAC005022826001604FF4CA628260016040F80C1C7047000004600C410440F0B5044683
:204FCC0005AFADF10C0D03B9084B97E860008DE86000FCF77DFE011C44BF05A003C802D4C3
:204FEC002046FEF7B5FA03B0F0BDC046E1460000000000000000008000B500213C2208232F
:20500C00ADF13C0D684601F0ABFF084800F1E00107914FF421710891012106910449002303
:20502C006A46903001F088FF0FB000BD08020020B52F000038B50446FBF754F805460B48DF
:20504C00401C007868B1204601F010F904462846FBF74CF804F0FF04012C0CBF8120022057
:20506C0038BD2846FBF742F8012038BD88080020B0B504460D46102001F0A8F8071C10D009
:20508C002146062201F0E8FD0020388115247C81054AFA6001F0AAF839462A4600F006F877
:2050AC00B0BD0420B0BDC046400200201CB51446CA78012A02D18A880A4B1A8000F078FDAD
:2050CC0030B9002000906946204601F06BF918B101F03CFA044603E00098447801F002FB62
:2050EC0020461CBD7012002038B51C46154600F05FFDB0B9002000906946284601F052F95B
:20510C0078B90099487848B90846C1798C4205D10146049889682246FDF794FF009801F080
:20512C00E1FA38BDF8B5044616460D46142001F04DF8071C0ED00121142201F08DFD3C7201
:20514C00FD603E820420B87401F050F8024A3946FFF7ACFFF8BDC0461F6C000010B50446DC
:20516C000B4802680023D90750080143D007801A4FF47A729941FCF75FF9002908BFB0F171
:20518C00004F28BF6FF000406060002010BDC0465073000038B50C4C103C206990B1617884
:2051AC000830491C6170FFF7F3FD0546162D09D0042D07D020694088002100F075FC2846DF
:2051CC0000F082FE38BDC0461802002038B50D46044601F05FFE10B1204601F097F808484F
:2051EC0000684FF47A71B1FBF0F080B205FB00F1204601F019FF204601F012FF38BDC0468C
:20520C00507300001CB500208DF80400082000F0DDFF041C0CD00121182201F01DFD00F0FE
:20522C00E5FF01A90123044A00912146FFF75CFF9DF804001CBDC046496C00001CB50020FB
:20524C008DF80400082000F0C1FF041C0CD00121122201F001FD00F0C9FF01A90123044ACC
:20526C0000912146FFF740FF9DF804001CBDC046576C0000F8B505460B48183804780E464F
:20528C000A2000F0A3FF071C0CD02946324601F0E3FC204600F0C8FE387200F0A7FF3946B5
:2052AC0000F086FCF8BDC046200200202DE9B0430F46044601F0ECFD04F1280292E8000355
:2052CC004B464246FCF7B8F805460B462A464046494601F0F7FA17B1303484E803002846FA
:2052EC00BDE8B08398B50146886840F6030320271A46521C02E040687F1EFFB260B15FB1FC
:20530C000488A34218BFA242F5D1C9681CC820311CC189C881E8890098BD7047F8B5044606
:20532C0016460D46102000F051FF071C0CD00421362201F08BFB3C817D81FE6000F056FFF1
:20534C00024A3946FFF7B2FEF8BDC046236E000070B505460E460C2000F038FF041C0CD071
:20536C000421302201F072FB2581668100F03EFF034A2146FFF79AFE70BD042070BDC046CC
:20538C004D6E0000024680B5062A0CDA094F900000EBC20007F10C02175A13181FB14FF667
:2053AC00F870B84202D14FF0FF3080BD18880880002080BD3C10002010B5044601F0F8FD1B
:2053CC0000F012FA002808BF6FF004000DD0083000F026FBA06038B110F8081C217110F89E
:2053EC00070CA071002010BD022010BD10B5044600212C220823ADF1300D684601F0B2FCD0
:20540C00E0200890A168606800236A4601F090FD002818BF002001D1FFF738FC0CB010BD22
:20542C0010B5044600212C220823ADF1300D684601F098FCE068A1680890606800236A4625
:20544C0001F076FD002818BF002001D1FFF71EFC0CB010BD10B5044601F0A2F8094B002242
:20546C00014633F80C0F30B1A04208BFD4B203D0521C062AF5D3FF24084601F06AFA20461E
:20548C0010BDC0463C10002010B503200021FFF7BBF9012000F0DCFF18B10648006800F0B3
:2054AC00FFFC01F043F9044C083C606000F0BCFC206110BD80000010001D00200B4B10B586
:2054CC0014331C68C1F30F2102F00F02C0F38710090440EA022024F480641C602404240C9B
:2054EC000C431C600143596010BDC0460080024038B5FAF7F7FD05460948E030007838B164
:20550C0006480024342101222346FFF761FC00B101242846FAF7EAFD204638BD00A00C4076
:20552C001C0E0020F8B5064637680D4600242C601FB9FAF7D7FD374608E0FAF7D3FD00E0D7
:20554C003F6839680029FBD1BD4201D03D600124FAF7CCFD2046F8BD10B504466078162876
:20556C0004D16088082100F09FFA30B1217904F1080000F035FF012010BD012000F0A4FC75
:20558C0001480460002010BD1802002070B505460E46102000F01AFE041C0CD001211922D6
:2055AC0001F05AFB2581E66000F020FE034A2146FFF77CFD70BD042070BDC0463B6C000051
:2055CC00F8B5044616460D46102000F0FFFD071C0CD00521012201F039FA3C727D72FE6096
:2055EC0000F004FE024A3946FFF760FDF8BDC0466B6E0000F8B5044616460D46102000F035
:20560C00E5FD071C0CD00521022201F01FFA3C727D72FE6000F0EAFD024A3946FFF746FD73
:20562C00F8BDC046716E000038B505460C2000F0CDFD041C0DD02946002201F00DFB4FF0E0
:20564C00FF30A06000F0D2FD034A2146FFF72EFD38BD042038BDC0465B5A0000F8B50446BB
:20566C0016460D460C2000F0B1FD071C0DD02A46042101F0EBF93C810520B87200F0B6FD8C
:20568C0039463246FFF712FDF8BD0420F8BDF8B5044616460D46102000F098FD071C0DD019
:2056AC002A46042101F0D2F9BC600020F86000F09DFD39463246FFF7F9FCF8BD0420F8BDFF
:2056CC001078802811D1508840F27F6181420CD190883F21B1EBA02F07D1C0F3C2110429B4
:2056EC0003D100F07F00834201D000207047012070471078802811D1508840F27F61814257
:20570C000CD190883F21B1EBA02F07D1C0F3C211032903D100F07F00834201D00020704783
:20572C00012070471078802811D1508840F27F6181420CD190883F21B1EBA02F07D1C0F37B
:20574C00C211052903D100F07F00834201D0002070470120704770B5044604F128020CCA50
:20576C000846002101F0AEF804F1300292E860002D1846EB0106290C3004014300F0DCF828
:20578C00383484E8600070BD10B5401E14460DD0401E09D0801E05D0001F01D0FFF776FA3E
:2057AC00052004E0002002E0042000E00220226821469047002010BD0A4A10B512680C4612
:2057CC004FF47A710023A1FB0001FBF735FE002908BFB0F1004F2EBF6FF0020020600020DC
:2057EC0010BDC0465073000038B5054600F0D8FE084C03220146243C54F80C0F18B1A842CF
:20580C0002D0521EF8D10024084601F0A2F8204638BDC0463C1000200949020480B5120CFC
:20582C0041F8082CC0F3074041F8040C0120086004480768002FFCD00020086080BDC046A2
:20584C0044600C4084088C4310B50446FAF74AFC084BE21892F8E810491EC9B282F8E81088
:20586C0021B99A680121A1408A439A60FAF73EFC10BDC0461C0E002038B50446FAF732FCD8
:20588C00084A02F108031D680121A14012192943196092F8E810491C82F8E810FAF726FCA8
:2058AC0038BDC0461C0E002010B501F0B1FB01F0B3FB032001F038FB06481030006830B178
:2058CC00034C204601F0B2F8204601F0ACF810BD316A0000A401002008B501F055FA01281E
:2058EC0001D0FFF714FA074801F01AFB00F008FC01F012FB01F00CFB01F006FB01F000FBAA
:20590C0008BDC046B5580000084910B5002008600120C861064CA062A16A20600548006827
:20592C00016A14208847A06A10BDC0460000244304200940B001001010B50C4600F0F6FE80
:20594C00211AB1F1004F08D8011B091DC90F05D1001DA04288BF041C00E0041D0148183047
:20596C00046010BD0020094038B5044601250DE0C0F11F0005FA00F1052881EA040403DBF9
:20598C00401FFCF70BFF01E0FFF75EFFB4FA84F02028EDD138BD38B5044601250DE0C0F153
:2059AC001F0005FA00F1052881EA040403DB401FFCF75EFF01E0FFF75FFFB4FA84F0202800
:2059CC00EDD138BD7FB50646082014460D46ADF800000920ADF80200684600F0B5FBBDF83B
:2059EC00041031809DF8061029700299216000907FBD7FB50646082014460D46ADF80000B0
:205A0C000920ADF80200684600F09EFBBDF8041031809DF8061029700299216000907FBDCD
:205A2C0098B5044600F0BCFD2168002908BF002709D00F4657F80C2C2260002347F80C3C99
:205A4C00FF2401F8024C00F084FF384698BD1078911D802810D1508840F27F6383420BD13E
:205A6C009088032818BF042806D1097831F0100014BF1129012000D00020704710B50C2085
:205A8C0000F0A4FB041C0BD00121042201F0E4F804480C30A06000F0A9FB214600F088F868
:205AAC0010BDC0462002002038B505460848103800780C4600F0B8FAC2B2044829462346F1
:205ACC0000904FF61840FFF7C3F938BDEF6D00001802002010B5044600F062FD074934F876
:205AEC00042C6FF3DF3224F8042C4A680860241F944238BF4C6000F02CFF10BD0C100020B1
:205B0C000EB50820ADF800000420ADF802000648007880000190684600F016FB002814BF9D
:205B2C00002002980EBDC0466C05002038B50C46054600F035FD002144F80C1C296811B9B1
:205B4C002C6006E0114651F80C2C002AFAD141F80C4C00F0FEFE38BD10B5044660680C3075
:205B6C0080B2FDF72FFC50B1A18800230181FF22036000F10C0182721846A16010BD6FF0F8
:205B8C00030010BD38B50546FFF716FC041C0DD128796946FFF7F6FB28B1A86800F096FD48
:205BAC006FF0050038BDBDF80000A880204638BD00B5ADF1140D8DF8040003910822ADF8E8
:205BCC000020ADF802201020ADF8060002208DF80800684600F0B8FA05B000BDB0B51546C6
:205BEC000C1801F089F8002700B90127054A394610680028FCD025600120106009B101F000
:205C0C0081F8B0BD00800C40202838BF07480CD307480C30016808038215920500F47C10AC
:205C2C0001F00F01104340EA0130704700803F408C130050094902460823C87F30F07F0059
:205C4C0005D0B1F91C00824208BF081C04D05B1E01F12001F1D100207047C046B80900200E
:205C6C00B0B504460D46082000F0B0FA071C0BD0812038700123FB70BC8000F0B7FA394622
:205C8C002A46FFF713FAB0BD0420B0BD38B52020EFF3118580F31188064CA068002101F06A
:205CAC006FF96169081AA169814238BF002085F3118838BD7801002010B50C46ADF1180D27
:205CCC0002900821ADF8001019216846ADF802104FF0FF31019100F037FA0499216006B0B3
:205CEC0010BD02464FF0FF307AB1116819B140290BD3890B09D1516819B10B0A05D0090E6E
:205D0C0003D191680F2998BF0020704770B515460C46064600F029FA011C03D1284600F0C4
:205D2C00BDFC70BD8D60304601F0E6F814B1204601F032F970BD80B5107802AF80280DD1D7
:205D4C00508840F27F61814208D19088834205D138789179884208BF012000D0002080BD65
:205D6C0070B515460E46044600F0FEF848B94FF6FF70314600F0F8F8002808BF112002D015
:205D8C0004808570002070BD084A00210320134643F80C1F401E9960FAD130320620401ED4
:205DAC0022F80C1BFBD100F029BBC0461810002098B50F46044600F0F3FB57B13A4600E076
:205DCC000A4652F80C1C0029FAD1216842F80C1C276000F0BEFD98BD0EB50820ADF80000FF
:205DEC000120ADF80200684600F0AEF903499DF804000870029888600EBDC04608020020B0
:205E0C000EB50820ADF800000120ADF80200684600F09AF903499DF8040048700298C8618D
:205E2C000EBDC0466C0500200748816841F31002064991F900100068A0F540704143081143
:205E4C00121A803210127047285009400C13005038B5FAF747F9074C054694F8E0000128FE
:205E6C0004D1FEF735F9002084F8E0002846FAF73DF938BD1C0E002010B5044610460A4619
:205E8C00211C14BF0028022006D0C8608A6003480B6100F091F8002010BDC0461C0E002047
:205EAC0070B5054600F028FF002400B90124054E30680028FCD0A847012030600CB100F021
:205ECC0021FF70BD00800C4010B5084C216861B120B101F10800097900F082FA103C20695B
:205EEC0000F0E8FB00202061607010BD1802002010B5FFF705FE064CE06038B100F046F9E3
:205F0C00044A204611211830FEF7E0FF10BDC046F40C0020E472000008B5FAF7E3F8064A51
:205F2C00117880B229B90549096800230B7001231370FAF7DBF808BD9812002014730000DA
:205F4C0010B5084C06492069814202D100F038FD606104F1C800042100F0D8FC10BDC0464F
:205F6C00192A000088080020034608460749097849B1021F084632F8041F8B4208BF101C44
:205F8C0002D0401EF7D100207047C0466C05002008B5283090E80C0005A003C8FBF74CFA4E
:205FAC00002908BFB0F1FF3F88BF4FF0FF3008BD00000000907E000038B50D46044600F004
:205FCC0057FF00212A462346116059685160596801B921460A605A60FAF788F838BD38B529
:205FEC0005460A2000F0F2F8041C09D00121152200F032FE258100F0F9F82146FFF7D8FD1B
:20600C0038BDFEE7074910B5112201F11800C468CB1CA34204D0521E00F11000F7D1002023
:20602C0010BDC046F40C00200EB58DF806005021ADF8001068460021ADF8021000F084F8FB
:20604C00002814BFFF209DF807000EBD0EB50820ADF800002020ADF802001020ADF8040063
:20606C00684600F071F8002814BF002002980EBD074810B50468FEF785FC04F07F040128F7
:20608C0004D100F05FFB022808BF641C204610BD4413005038B50D46044600F0B7F8024619
:2060AC000448016822B1148095704068FFF72EFE38BDC0461002002006490868002818BFFE
:2060CC00012005D1044B4020012218600020CA617047C04604800C402C500C4008B500F026
:2060EC0049FB00F0804100F00200084305D003484FF00051C83000F009FC08BD8808002050
:20610C00074808B51030006828B1034800F08EFC024800F088FC08BDF962000001690000D9
:20612C00A4010020074810B51030006830B1044C204600F07BFC204600F075FC10BDC0463A
:20614C009B4E0000A401002010B50446208800F07DF838B1816811B12046884710BD6FF074
:20616C00010010BD4FF0FF3010BD0EB50820ADF800000420ADF802000C2001906846FFF74E
:20618C00E3FF002814BF002002980EBD01460648007840B14FF6FF73091F002221F8043F36
:2061AC00401E8A70FAD170476C0500201CB5064A14683CB1024600911B2301204FF6FF71F1
:2061CC00A0471CBD00201CBD741200200EB501900821ADF8001068460221ADF80210FFF7A4
:2061EC00B3FF002814BF002002980EBD0EB50820ADF800001A20ADF802006846FFF7A4FFA9
:20620C00002814BFFF209DF804000EBD0EB50820ADF800000420ADF8020001906846FFF764
:20622C0093FF002814BF002002980EBD08B542882D2A28BF6FF0010004D203490C3151F873
:20624C002210884708BDC0464870000008B5FFF701F9FF2808BF002004D0034B810001EB64
:20626C00C001581808BDC04648100020064A014610680028FCD10023D3611160D069002871
:20628C00FCD0D3615068704700100440064802680A6082684A60C2688A60406B20F07840F2
:2062AC0040F08050C86070474C130050202838BF002008D304480C300068C10C01F44071A7
:2062CC00C0F38450084370478C13005006490822C87F30F07F0008BF081C04D0521E01F1BA
:2062EC002001F5D100207047B809002010B5064C206900F0FDFD0146A06800B9E160A06818
:20630C00401CA06010BDC046A4010020002181820449C0684969814203D10348006800F0F8
:20632C007FBE7047780100205473000010B50446E088FFF78FF8FF2808BF4FF0FF3003D0DA
:20634C00A0712046FDF774FA10BD02294FF0000204D0012808BF4FF47A7203E0012808BF59
:20636C0040F2EE221046704708B538B1801E03D0001F07D1062002E0022000E000206946DB
:20638C00FEF780F908BD1078802809D1508840F27F61814204D19088834208BF012000D09D
:2063AC000020704738B50D460446FFF74FFE002818BF6FF0040003D120462946FFF77CFCB4
:2063CC0038BDFEE70449887820B90448001F486200F05ABD7047C0466C0500202002002005
:2063EC0010B504460448001D03681BB10A4601202146984710BDC04674120020054808213C
:20640C001C38A0F84C1002494165FDF731BBC04639620000181000200EB50820ADF80000DE
:20642C000A20ADF802004FF0FF3001906846FFF78BFE0EBD0EB50820ADF800000A20ADF829
:20644C0002004FF0FF3001906846FFF77DFE0EBD042807BF4FF0C0421D234FF080521C2382
:20646C0001483421FEF7B4BC00A00C400548BC3001680348084001F07C4108437047C04636
:20648C00FCFCFC00B81200500549983108680968C0F3870001F0030140EA01207047C046B3
:2064AC00B8120050002948BF0021044A02EB8000026861F3050202607047C046001008406E
:2064CC000348016803480160034800F01FBAC046E0200240E0200260801B0020054A0C324A
:2064EC001268824218BF032002D10846FEF7A2BD7047C04688080020054A0C3212688242AB
:20650C0018BF032002D10846FEF794BD7047C0468808002010B5F9F7E5FD84B200F024F8C8
:20652C002046F9F7E3FD014810BDC046147300000548E2380078401E03D0401E03D100F044
:20654C0071B8FEF7E5BB70475C06002050B110F1040F08BF042006D010F1030F0CBF022062
:20656C00012070470020704705490A68107828B90120107048680068FCF77AB97047C0469B
:20658C001473000008B50548034A41680120106048698969884708BD04200940E40100202E
:2065AC0010B500F039FD80B260F30F04F9F79AFD80B260F31F44204610BD1CB504466068C7
:2065CC006946FFF7F9F820B9009860602046FCF73BFF1CBD01460888401E04D0401E05D13F
:2065EC008878FFF7C1BE8878FCF77ABD704710B5044600F079FC844204D0846800F04EF809
:20660C00204610BD002010BD10B51D23FFF771F8012420B91B23FFF76CF800B90024204611
:20662C0010BD70470448801C0078062818BF072801D1FEF7A1BA70476C05002038B50C468D
:20664C000546FFF7D3FD02461B2321462846FEF705FA38BD08B5406810F07F4F18BF6FF070
:20666C00020002D1FFF780F9002008BD08B5406810F07F4F18BF6FF0020002D1FFF78BF92D
:20668C00002008BD0EB501900821ADF8001068460521ADF80210FFF757FD0EBD0EB50190E3
:2066AC000821ADF8001068460521ADF80210FFF74BFD0EBD0EB501900821ADF8001068467C
:2066CC000321ADF80210FFF73FFD0EBD0EB501900821ADF8001068460321ADF80210FFF725
:2066EC0033FD0EBD0EB501900821ADF8001068460321ADF80210FFF727FD0EBD0EB501909F
:20670C000821ADF8001068460321ADF80210FFF71BFD0EBD10B50446A088FCF753FE00288A
:20672C00A06014BF00206FF0030010BD04480168436802688A42FAD1080440EA134070478A
:20674C0008200940044884380068C0F302400428C8BF4FF0FF3070471813005008B5032024
